:10000000000002209901000029370000ED360000B1
:10001000ED360000ED360000ED360000ED36000054
:10002000ED360000ED360000ED3600002937000007
:1000300029370000ED36000029370000DD360000CA
:100040002937000029370000293700002937000030
:100050002937000029370000293700002937000020
:100060002937000029370000293700002937000010
:100070002937000029370000293700002937000000
:1000800029370000293700002937000029370000F0
:1000900029370000293700002937000029370000E0
:1000A00029370000293700002937000029370000D0
:1000B000293700002937000029370000453E00009D
:1000C00029370000E945000029370000714B000086
:1000D000293700009D510000293700002937000012
:1000E0002937000029370000293700002937000090
:1000F0002937000029370000293700002937000080
:10010000293700002937000029370000293700006F
:1001100029370000992800002937000029370000FE
:10012000293700002937000029370000293700004F
:10013000293700002937000029370000293700003F
:100140002937000029370000ED560000293700004C
:100150003D5C0000293700002937000029370000E6
:10016000293700002937000029370000293700000F
:1001700029370000293700002937000029370000FF
:1001800029370000293700002937000029370000EF
:100190002937000029370000584B4CF2205210B587
:1001A0001A804DF628121A8000BF00BF03F0C0FA73
:1001B000534B4FF030621A60524A9A60524ADA60EA
:1001C000524B4FF470021A60514B1A6812F480724D
:1001D00004D150490A604FF4A8521A604E4B1A7865
:1001E000110703D51A7842F008021A704B4B4C4C99
:1001F0004C482A221A704C4A00239918A14203D273
:10020000195899500433F8E7484B494900228B426A
:1002100002D243F8042BFAE74648474900235A58CC
:100220001A500433B3F5CC7FF9D1444B444A8021B2
:1002300003F8011B9342FBD1424B3E4A1A60424BEA
:100240008A221A70A3F5805324225A70A0221A70B1
:100250009A799207FCD59A79D406FCD43B4A9379D3
:1002600003F00C03082B394BF9D105221A714322F4
:100270005A719A799006FCD5344A9179334B4906E4
:10028000FBD5334A4FF08171116005215160202266
:100290001A709A7902F00C020C2AFAD12D4B2E4AD0
:1002A0001A602E4B2E4A1A6000225A60072243F829
:1002B000042C2C4AC3F80C2D62B602F08FF9154BB2
:1002C0001B68DA0705D5284802F0CAF8274B284AE8
:1002D0001A60284B1B785B0609D5244C244A2368F6
:1002E000934204D1204802F0BBF80023236006F0BB
:1002F00029F903F023FA03F003F9FEE70E20054085
:1003000030800440823F04000100002B88ED00E0B3
:1003100010D0034014D0034002D0074000E0074053
:10032000AC10FF1F8C7500006007FF1FAC10FF1F93
:10033000E015FF1F0002FF1F0000000000E400E0C6
:1003400056E400E008ED00E00050064000400640A2
:100350004480044004800440C010050014E000E024
:100360003F19010000002020CDB804581CE00340D4
:10037000A5C3945A00F00740FFFFFFFFFFFFFFFFF8
:10038000FFFFFFFFFFFFFFFFFFFFFFFFFFFFFFFF7D
:10039000FFFFFFFFFFFFFFFFFFFFFFFFFFFFFFFF6D
:1003A000FFFFFFFFFFFFFFFFFFFFFFFFFFFFFFFF5D
:1003B000FFFFFFFFFFFFFFFFFFFFFFFFFFFFFFFF4D
:1003C000FFFFFFFFFFFFFFFFFFFFFFFFFFFFFFFF3D
:1003D000FFFFFFFFFFFFFFFFFFFFFFFFFFFFFFFF2D
:1003E000FFFFFFFFFFFFFFFFFFFFFFFFFFFFFFFF1D
:1003F000FFFFFFFFFFFFFFFFFFFFFFFFFFFFFFFF0D
:10040000FFFFFFFFFFFFFFFFFFFFFFFFDEF9FFFF23
:1004100010B5054C237833B9044B13B10448AFF33E
:1004200000800123237010BDAC10FF1F00000000EE
:100430008C75000008B5064B1BB106480649AFF3A2
:1004400000800648036813B1054B03B1984708BD07
:10045000000000008C750000B010FF1FAC10FF1FE3
:100460000000000008B5194B1B7843F0040218493E
:10047000096811F4805F01D0934212D113490A70C8
:1004800043F005031249096811F4805F01D09A42D4
:1004900011D10E4A137001F007FF062001F002FB94
:1004A00008BD4FF4A2700B4908604FF4007001F5CD
:1004B0007F610860E2E74FF4A271074A11604FF4D0
:1004C000007102F57F621160E3E700BF2512FF1F94
:1004D0003C80044014B0044018B0044008B5024801
:1004E00000F00EFA08BD00BFC810FF1F08B5642158
:1004F00002F034FE08BD00BF10B590B00446642180
:1005000002F02CFE00280FDD6846642102F0C8FDD1
:1005100000280CDD20466946402206F0DFFA003054
:1005200018BF0120404204E04FF0FF3001E04FF0DF
:10053000FF3010B010BD00BF2DE9F04F95B004465C
:1005400090F8029090F803800579467907464FF4B9
:10055000FA7102F0A5FD00284ADB04A8214606F046
:1005600051FB04A801F080FC10B104A801F0BEFC0E
:100570004FEA084848EA096848EA060848EA0528B0
:100580002046FFF7B3FF04A84146002201F0BAFC61
:1005900070B3684604A901F0B3FB029DDDF800B01A
:1005A000BBF1000F24D0B8F1000F1ED000264FF48D
:1005B000FA7A3846514602F073FD002818DB019B99
:1005C00005F140029A4204D9AB420BD9C5EB0309AD
:1005D00001E04FF0400905EB0B0039464A4600F0B8
:1005E00051FD4D4440364645E3D32046FFF77EFF9C
:1005F00015B0BDE8F08F00BF2DE9F04F95B007466C
:1006000080464FF4FA7102F04BFD002846DB384675
:10061000FFF76CFF002841DB04A8394606F0F2FA28
:1006200004A801F021FC10B101233B7001E002237A
:100630003B70684604A901F063FB029C019D2B0EF0
:100640007B702B0CBB702B0AFB703D713846FFF79B
:1006500053FF18BB4FF04009AA4604F140039D42E6
:1006600013D2A5421AD92E1B009820444146324687
:1006700000F076FAB3468EB154463846FFF73CFF99
:1006800060B9BBF1000FE8DC08E000982044414667
:100690004A4600F065FA4034CB46EEE715B0BDE8B7
:1006A000F08F00BF2DE9F04192B0044600221A4BB2
:1006B0001A804FF0400802A8414601AA01F02AFD25
:1006C00008B301232370019B1A0E62701A0CA270EA
:1006D0001A0AE27023712046FFF70EFFC0B902AF7D
:1006E00025460DF1480E3E460FCE28606960AA608F
:1006F000EB60374610357645F5D12046FFF7FCFE16
:100700000028D8D004E0002323702046FFF7F4FE31
:1007100012B0BDE8F08100BF0811FF1F10B590B006
:100720000446642102F0BCFC002813DB6846214625
:1007300006F068FA684601F097FB28B1684601F0B8
:10074000D5FB0123237001E00023237020466421A0
:1007500002F004FD10B010BD10B5044600F0C6FF55
:1007600080F001002070112363702046642102F0A4
:10077000F5FC10BD38B504460546012305F8083BD5
:10078000284600F081FD284601F05CF9030E6370F5
:10079000030CA370030AE370207104F1100001F050
:1007A00099F82046642102F0D9FC38BD38B50446DA
:1007B0002E4D2B685B6828462D4902229847284613
:1007C00002F08EFE042222700023A371E3712372D3
:1007D000072161725F21A172F821E1725C2121730E
:1007E0000E2161736370A3701021E1702371227474
:1007F0004A206074A221A174E37422756075A1750A
:10080000E37502212176252161765121A176E376D7
:10081000012121776E2161773621A177E37772B6C6
:1008200084F83A20E92384F83B30E52384F83C300F
:10083000104B70221A701049104A116080221A70F1
:100840001A46137813F0800FFBD00D4B1B681A0C5F
:1008500084F83D201A0A84F83E2084F83F3062B6BE
:100860002046642102F07AFC38BD00BF2812FF1F29
:1008700050700000000002400000074104000240E8
:100880000C00024070B505460023437083701022AF
:10089000C2700371FFF730FE70B90024402628466D
:1008A0002146324601F044FD2846FFF725FE18B9DF
:1008B0004034B4F5805FF2D170BD00BFF8B5054695
:1008C0000023437083701022C2700371FFF714FE7F
:1008D000A8B900244FF4FA7640272846314602F0A2
:1008E000DFFB00280BDB284621463A4601F040FD9D
:1008F0004034B4F5805FF0D12846FFF7F7FDF8BD2E
:1009000010B5044602F01CFC00284AD02046002105
:1009100002F0C6FB2046FFF7E9FD002841DB227804
:100920006378FD2B2CD0FE2B36D0002B39D1032A37
:1009300017D003D8012A0CD007D90EE0092A17D006
:10094000632A19D0042A2CD10FE02046FFF7F4FDCA
:1009500010BD2046FFF750FE10BD2046FFF7A2FE57
:1009600010BD2046FFF7DAFE10BD00F05FFD10BDA0
:100970002046FFF7FFFE10BD2046FFF7EDFE10BD3D
:1009800012B1012A04D010BD2046FFF797FF10BD19
:100990002046FFF777FF10BD092A02D12046FFF756
:1009A00005FF10BD2DE9F0075E495F4E5F48604DC1
:1009B000604C614BDFF8A0A1DFF8A0C10A782AB330
:1009C00072B60A7812F0010F07D0226807683A4021
:1009D000DFF87881C8F8002022600A7812F0020F50
:1009E00007D02A6847683A40DFF86081C8F80420D9
:1009F0002A600A7812F0040F07D0326887683A40FC
:100A0000DFF84881C8F80820326062B6DA68B2F1CF
:100A1000384F09D0494A1A604FF03842DA604FF037
:100A200078421A61464A1A60464AD2F8008001228A
:100A300088F80021444A127812F0020F35D04FF0A6
:100A40000042DA6270225A63DA6A002AFCDA9A6B90
:100A50004FF00042DA6200225A63DA6A002AFCDAB6
:100A60009A6B5FFA82F9012288F880200A78C2B175
:100A700012F0010F05D0354AD2F80080344AC2F88E
:100A800000800A7812F0020F03D0304A5268CCF886
:100A900000200A7812F0040F03D02C4A9268CAF89A
:100AA000002019F0800F89D035E04FF00042DA6263
:100AB00005225A63DA6A002AFCDA9A6B4FF0004288
:100AC000DA6200225A63DA6A002AFCDA9A6B5FFA69
:100AD00082F9012288F880200A78C2B112F0010F51
:100AE00005D01A4AD2F80080194AC2F800800A7864
:100AF00012F0020F03D0154A5268CCF800200A7891
:100B000012F0040F03D0114A9268CAF8002019F0BD
:100B1000010F7FF453AF00220E4B1A70BDE8F007AF
:100B2000704700BF2C11FF1F88E100E01411FF1F68
:100B300084E100E080E100E000C0024001401F00CD
:100B400000001F800C11FF1F0A11FF1F2011FF1F43
:100B500000E100E00B11FF1F08E100E004E100E00C
:100B60002DE9F04F85B080468A469146084600211F
:100B700005F0E8FF7D4B1B7803937D4B1B78002B22
:100B800028D072B67A4B1B7813F0010F07D0794B3F
:100B90001968794A12680A4078490A601A60744BE9
:100BA0001B7813F0020F07D0754B1968724A526810
:100BB0000A4072494A601A606D4B1B7813F0040FAB
:100BC00007D0704B19686C4A92680A406B498A607A
:100BD0001A6062B66C4BDB68B3F1384F0AD06A4BCF
:100BE0006A4A1A604FF03842DA604FF078421A6170
:100BF000674A1A60674B1B780293002B00F02B8129
:100C0000654B1B68012283F80021584B1B7813F0B9
:100C1000020F1BD05C4B4FF00042DA6270225A6325
:100C20001A46D36A002BFCDA574B9A6B4FF00042FE
:100C3000DA6200225A631A46D36A002BFCDA524B5E
:100C40009B6B13F0800F00F0D681F9E14E4B4FF013
:100C50000042DA6205225A631A46D36A002BFCDA94
:100C6000494B9A6B4FF00042DA6200225A631A46EF
:100C7000D36A002BFCDA444B9B6B13F0010F00F09E
:100C8000DF81B8E1012381F800313F4B4FF0004292
:100C9000DA6206225A631A46D36A002BFCDA3A4B10
:100CA0009B6B012381F880301823013B7FF4FDAF5B
:100CB000039A12F0040F05D0029B012B0CBF852272
:100CC000752200E07522012381F800312E4B4FF090
:100CD0000040D8625A631A46D36A002BFCDA2A4BCA
:100CE0009B6B012381F88030039A12F0020F1DD014
:100CF00081F80031244B4FF00042DA6270225A63CF
:100D0000DA6A002AFCDA204B9B6B1F4A4FF0004442
:100D10000020D4625063D36A002BFCDA936B13F08B
:100D2000800FF6D0012381F8803094E0012381F810
:100D30000031154B4FF00042DA6205225A63DA6A3D
:100D4000002AFCDA104B9B6B0F4A4FF00044002046
:100D5000D4625063D36A002BFCDA936B13F0010F5B
:100D6000F6D1012381F8803075E000BF0A11FF1F22
:100D70002C11FF1F80E100E01411FF1F2011FF1F45
:100D800084E100E088E100E000C0024001401F0073
:100D900000001F800B11FF1F0C11FF1F9B4B1B78C6
:100DA000C3B113F0010F03D0994B1A68994B1A6025
:100DB000964B1B7813F0020F03D0954B5A68964B55
:100DC0001A60924B1B7813F0040F03D0904B9A6873
:100DD000924B1A60FFF7E6FD8C4B1B78002B28D056
:100DE00072B68A4B1B7813F0010F07D08C4B196831
:100DF0008C4A12680A4086490A601A60834B1B7845
:100E000013F0020F07D0884B1968864A52680A40CF
:100E10007F494A601A607D4B1B7813F0040F07D09E
:100E2000824B19687F4A92680A4079498A601A6041
:100E300062B67F4BDB68B3F1384F0AD07C4B7D4AFA
:100E40001A604FF03842DA604FF078421A617A4AFD
:100E50001A6000230293039901F00803DBB20093A8
:100E6000DFF8D8C1012001EA00020192704B4FF077
:100E70000042009961B108EB0901013981EA0801DA
:100E800011F07E4F06D028F07E4BCBF1007B02E0C4
:100E9000CB4600E0CB46DCF8001081F80001019958
:100EA000D9B1DA6203215963D96A0029FCDA996B56
:100EB000DA624FEA184141F080515963D96A00293A
:100EC000FCDA996BDA621FFA88F141F080515963BC
:100ED000D96A0029FCDA996B15E0DA62C8F3074198
:100EE00041F0805141F440715963D96A0029FCDA1C
:100EF000996BDA621FFA88F141F080515963D96A1F
:100F00000029FCDA996BBBF1000F18D09AF8001099
:100F10001C6844F480641C60DA625963BBF1010709
:100F200007D0574451464D78DC6A002CC0F29280BD
:100F3000FAE75746D96A0029C0F29980FAE7DCF847
:100F4000004084F88000DA44D844B9EB0B0990D112
:100F5000029A002A31D0012384F80031344B4FF03B
:100F60000042DA6206225A631A46D36A002BFCDA80
:100F70002F4B9B6B012384F880301823013B7FF4B7
:100F8000FDAF039B13F0040F05D0029901290CBF9C
:100F90008A227A2200E07A22012384F80031244B4D
:100FA0004FF00041D9625A631A46D36A002BFCDA2B
:100FB0001F4B9B6B012384F88030144B1B78002B54
:100FC00058D013F0010F03D0114B1A68114B1A605F
:100FD0000E4B1B7813F0020F03D00D4B5A680E4BCB
:100FE0001A600A4B1B7813F0040F43D0084B9A6821
:100FF0000A4B1A603EE0114B1968012381F88030DA
:10100000029A022A7FF63EAEC8E600BF2C11FF1FEF
:101010002011FF1F00E100E004E100E008E100E032
:1010200080E100E01411FF1F84E100E088E100E0AE
:1010300000C0024001401F0000001F800C11FF1F74
:101040000E4B1B68012283F8802000230C4A13708A
:10105000029300E79C6B1E6846F480661E60DA62AD
:101060005D6301F8014BB9427FF45DAF62E7996BB4
:10107000397064E705B0BDE8F08F00BF0C11FF1FA9
:101080000B11FF1F2DE9F84F06460D461746DFF8F6
:10109000E8A1DFF8E891DFF8E8816C4CDFF8E4B113
:1010A0006B4B1B780BB1FFF77DFC6A4B1B785BB376
:1010B00072B6684B1B7813F0010F08D0D8F80020E7
:1010C000654B1B681340654A1360C8F80030614BDC
:1010D0001B7813F0020F08D0D9F800205E4B5B6834
:1010E00013405E4A5360C9F800305A4B1B7813F026
:1010F000040F08D0DAF80020574B9B681340574A7A
:101100009360CAF8003062B6E368B3F1384F09D093
:10111000534B23604FF03843E3604FF07843236133
:10112000504B2360504B1968012381F800314FF078
:101130000043E36206236363E36A002BFCDAA36BDC
:10114000012381F88030F2B2C2F58072BA4228BF22
:101150003A46182001387FF4FDAF81F80031434B47
:101160001B7813F0010F1FD04FF00043E3620223FE
:101170006363E36A002BFCDAA36B4FF00043E36286
:10118000330C43F080536363E36A002BFCDAA36BF8
:101190004FF00043E362B3B243F080536363E36A0A
:1011A000002BFCDAA36B18E04FF00043E362C6F3B8
:1011B000074343F0805343F400736363E36A002BF7
:1011C000FCDAA36B4FF00043E362B3B243F0805309
:1011D0006363E36A002BFCDAA36B1644BF1A2A444C
:1011E0004FF0004115F8013BE1626363E36A002BB5
:1011F000FCDAA36B9542F5D11B4B1B68012183F8E8
:1012000080100421124B1970124B1B78C3B113F0DC
:10121000010F03D0114B1968154B19600D4B1B784A
:1012200013F0020F03D00D4B5968124B1960094B94
:101230001B7813F0040F03D0084B9B68CBF80030E9
:101240000FB115462CE7BDE8F88F00BF00C0024083
:101250000B11FF1F2C11FF1F1411FF1F2011FF1F67
:1012600001401F0000001F800C11FF1F0A11FF1F0B
:1012700000E100E004E100E088E100E084E100E05A
:1012800080E100E008E100E010B50446594B1B780E
:101290000BB1FFF787FB584B1B78002B28D072B699
:1012A000554B1B7813F0010F07D0544B1968544A63
:1012B00012680A4053490A601A604F4B1B7813F0BA
:1012C000020F07D0504B19684D4A52680A404D49E9
:1012D0004A601A60484B1B7813F0040F07D04B4B41
:1012E0001968474A92680A4046498A601A6062B69D
:1012F000474BDB68B3F1384F0AD0454B454A1A607B
:101300004FF03842DA604FF078421A61424A1A6070
:10131000424B1968012381F800313D4B4FF00042E8
:10132000DA629F225A631A46D36A002BFCDA384BE2
:101330009A6B4FF00042DA6200225A631A46D36A6F
:10134000002BFCDA324B9A6B22704FF00042DA62CB
:1013500000225A631A46D36A002BFCDA2C4B9A6B94
:1013600062704FF00042DA6200225A631A46D36A72
:10137000002BFCDA264B9B6BA3702378012B18D132
:10138000234B4FF00042DA6200225A631A46D36AB6
:10139000002BFCDA1E4B9A6BE2704FF00042DA62CF
:1013A00000225A631A46D36A002BFCDA184B9B6B57
:1013B0002371012381F880300F4B1B78C3B113F0E8
:1013C000010F03D00F4B1A68154B1A600A4B1B789C
:1013D00013F0020F03D00B4B5A68124B1A60064BE6
:1013E0001B7813F0040F03D0064B9A680E4B1A605B
:1013F00010BD00BF0B11FF1F2C11FF1F80E100E08B
:101400001411FF1F2011FF1F84E100E088E100E0BC
:1014100000C0024001401F0000001F800C11FF1F90
:1014200000E100E004E100E008E100E070B582B016
:10143000984B1B780BB1FFF7B5FA6846FFF724FF0E
:101440009DF80030202B40F0A0809DF80230A3F1E1
:101450002002D2B2022A00F29880212B00F03881BB
:101460008D4A11788811C4B201F03F011170012C2E
:1014700000F23781222B0CBF08260226874B1B78EF
:10148000002B28D072B6854B1B7813F0010F07D0C4
:10149000834B1968834A12680A4083490A601A60BC
:1014A0007E4B1B7813F0020F07D0804B19687D4AE2
:1014B00052680A407C494A601A60784B1B7813F0E6
:1014C000040F07D07A4B1968764A92680A40764929
:1014D0008A601A6062B6774BDB68B3F1384F0AD086
:1014E000744B754A1A604FF03842DA604FF0784218
:1014F0001A61724A1A60724B1968012381F800312F
:101500006C4B4FF00042DA6206225A631A46D36AE5
:10151000002BFCDA674B9A6B012281F8802018259A
:10152000013D7FF4FDAF81F800214FF00042DA6207
:10153000C4225A631A46D36A002BFCDA5D4B9A6BBD
:101540004FF00042DA6204FB06F2120242F08052CF
:101550005A631A46D36A002BFCDA564B9A6B4FF04B
:101560000042DA624FF080525A631A46D36A002B67
:10157000FCDA504B9B6B012381F88030464B0130E5
:101580001A7842EA80121A7080E0444B1B78002BD4
:1015900028D072B6414B1B7813F0010F07D0404B97
:1015A0001968404A12680A403F490A601A603B4B7A
:1015B0001B7813F0020F07D03C4B1968394A526868
:1015C0000A4039494A601A60344B1B7813F0040F03
:1015D00007D0374B1968334A92680A4032498A600B
:1015E0001A6062B6334BDB68B3F1384F0AD0314B27
:1015F000314A1A604FF03842DA604FF078421A618F
:101600002E4A1A602E4B1968012381F80031294BAC
:101610004FF00042DA6206225A631A46D36A002B60
:10162000FCDA244B9A6B012281F8802018200138C3
:101630007FF4FDAF81F800214FF00042DA62C7224B
:101640005A631A46D36A002BFCDA1A4B9B6B0123B0
:1016500081F88030114B1B78C3B113F0010F03D018
:10166000114B1A68174B1A600C4B1B7813F0020FC2
:1016700003D00D4B5A68144B1A60084B1B7813F0BB
:10168000040F03D0084B9A68104B1A600322014BD9
:101690001A7026E00B11FF1F0A11FF1F2C11FF1FEC
:1016A00080E100E01411FF1F2011FF1F84E100E022
:1016B00088E100E000C0024001401F0000001F80E0
:1016C0000C11FF1F00E100E004E100E008E100E090
:1016D000054B1A789011C4B202F03F021A7002262C
:1016E000CCE602B070BD00BF0A11FF1F08B56A4BFF
:1016F0001B78002B00F0C880684B1B78002B28D08B
:1017000072B6664B1B7813F0010F07D0644B196853
:10171000644A12680A4064490A601A605F4B1B7889
:1017200013F0020F07D0614B19685E4A52680A40F5
:101730005D494A601A60594B1B7813F0040F07D0BB
:101740005B4B1968574A92680A4057498A601A6089
:1017500062B6584BDB68B3F1384F0AD0554B564A46
:101760001A604FF03842DA604FF078421A61534AFB
:101770001A60534B1968012381F80031514B1B78D3
:1017800013F0020F3AD04B4B4FF00042DA62702256
:101790005A631A46D36A002BFCDA464B9A6B4FF019
:1017A0000042DA6200225A631A46D36A002BFCDA3E
:1017B000404B9A6BD2B2012381F88030374B1B78B3
:1017C000C3B113F0010F03D0374B19683E4B1960BA
:1017D000324B1B7813F0020F03D0334B59683B4B4D
:1017E00019602E4B1B7813F0040F03D02E4B996811
:1017F000374B196012F0800F3AD147E02D4B4FF074
:101800000042DA6205225A631A46D36A002BFCDAD8
:10181000284B9A6B4FF00042DA6200225A631A4654
:10182000D36A002BFCDA234B9A6BD2B2012381F8E6
:1018300080301A4B1B78C3B113F0010F03D01A4B41
:101840001968214B1960154B1B7813F0020F03D058
:10185000154B59681D4B1960104B1B7813F0040F82
:1018600003D0114B99681A4B196012F0010F0FD178
:101870000022094B1A70134B1B7813F0C00F09D0CC
:10188000FFF7D4FD002008BD012008BD002008BDE1
:10189000002008BD012008BD0B11FF1F2C11FF1FE8
:1018A00080E100E01411FF1F2011FF1F84E100E020
:1018B00088E100E000C0024001401F0000001F80DE
:1018C0000C11FF1F0A11FF1F00E100E004E100E01E
:1018D00008E100E070B504464C4B1B780BB1FFF7F4
:1018E00061F84B4B1B78002B28D072B6484B1B7805
:1018F00013F0010F07D0474B1968474A12680A4096
:1019000046490A601A60424B1B7813F0020F07D059
:10191000434B1968404A52680A4040494A601A607D
:101920003B4B1B7813F0040F07D03E4B19683A4A23
:1019300092680A4039498A601A6062B63A4BDB689D
:10194000B3F1384F0AD0384B384A1A604FF038425A
:10195000DA604FF078421A61354A1A60354B1D68DB
:10196000012385F80031304B4FF00042DA624B2200
:101970005A631A46D36A002BFCDA2B4B9A6B4FF052
:101980000042DA624FF080525A631A46D36A002B43
:10199000FCDA254B9A6B4FF00042DA624FF080522E
:1019A0005A631A46D36A002BFCDA1F4B9B6B00214B
:1019B0001D4A4FF000460846D6625063D36A002B9A
:1019C000FCDA936B635401310829F5D1012385F8C2
:1019D00080300F4B1B78C3B113F0010F03D00F4BB6
:1019E0001A68154B1A600A4B1B7813F0020F03D0CC
:1019F0000A4B5A68114B1A60054B1B7813F0040F01
:101A000003D0064B9A680E4B1A6070BD0B11FF1F76
:101A10002C11FF1F80E100E01411FF1F2011FF1F98
:101A200084E100E088E100E000C0024001401F00C6
:101A300000001F800C11FF1F00E100E004E100E046
:101A400008E100E08378A3F11002D2B20F2A02D895
:101A5000012098407047A3F12002D2B2052A03D892
:101A6000063B01209840704702783AB9427882B923
:101A7000002B0CBF00204FF480107047FF2A0BD1C1
:101A80004278FF2A0BD1FF2B0CBF00204FF48010AF
:101A900070474FF4801070474FF4801070474FF438
:101AA0008010704770B582B006466B4D6B4B53F893
:101AB00030302B6001246A4B1C7000F0A3FB3046D1
:101AC000214600F001FD2B6883F880406846FFF74F
:101AD000DBFB6846FFF7B6FFB0F1807F40F2A080E5
:101AE000604B1B78002B28D072B65E4B1B7813F02E
:101AF000010F07D05C4B19685C4A12680A405C49C8
:101B00000A601A60574B1B7813F0020F07D0594B2D
:101B10001968564A52680A4055494A601A60514B42
:101B20001B7813F0040F07D0534B19684F4A926883
:101B30000A404F498A601A6062B6504BDB68B3F1C5
:101B4000384F0AD04D4B4E4A1A604FF03842DA6097
:101B50004FF078421A614B4A1A609DF80030012B11
:101B600014D13D4B1968012381F80031434B4FF0EC
:101B70000042DA62444A5A631A46D36A002BFCDAFE
:101B80003E4B9B6B012381F8803027E0324B196874
:101B9000012381F80031394B4FF00042DA6206220E
:101BA0005A631A46D36A002BFCDA344B9A6B012233
:101BB00081F88020182001387FF4FDAF81F80021E2
:101BC0004FF00042DA62B7225A631A46D36A002BFA
:101BD000FCDA2A4B9B6B012381F88030214B1B7868
:101BE000C3B113F0010F03D0214B1A68274B1A60C1
:101BF0001C4B1B7813F0020F03D01D4B5A68244B6B
:101C00001A60184B1B7813F0040F03D0184B9A6816
:101C1000204B1A609DF80030202B0FD0012300E0EC
:101C200000239DF80020012A05D19DF804204AB91F
:101C300043F0140308E0202A06D100E0092343F012
:101C4000020301E043F00403134A13706846FFF7F0
:101C50001BFB012002B070BD0C11FF1F647000005F
:101C60001011FF1F2C11FF1F80E100E01411FF1F56
:101C70002011FF1F84E100E088E100E000C0024085
:101C800001401F0000001F808017001000E100E0ED
:101C900004E100E008E100E00A11FF1F00B583B095
:101CA000002069460822FEF75BFF009B124A934220
:101CB00001D101981DE0B3F1FF3F17D10E4B009306
:101CC0000E4B0193002069460822FFF7DBF9FFF76E
:101CD0000DFD0028FBD0002069460822FEF740FFDA
:101CE000009B054A934203D1019802E0002000E0E6
:101CF000002003B05DF804FB4C5596FA5802F61824
:101D00002DE9F04F93B08346029100230360FFF763
:101D1000C5FF002800F09D8083B2039302980378EA
:101D200053B101464D4A4E485A4000FB02F211F8A9
:101D3000013F002BF8D100E0484A5108494BA3FB72
:101D400001039B0BC3EBC333A2EB430301331FFA25
:101D500083F8039900297CD001EB4102049200230F
:101D60000193CDF814B003980199461A072E48D86C
:101D7000081D40000AA97200FEF7F2FE002E48D1AD
:101D800036E00AAB33F8143043452BD100230993D6
:101D9000284607A90A22FEF7E3FE099B03F1020980
:101DA000049A91444FEA8909029F4FF0100B48466C
:101DB0000EA95A46FEF7D4FE09F110097B1C3A78A9
:101DC0009DF8381091420FD172B30EA9103713F855
:101DD000012B11F8010F824206D142B3BB42F6D16A
:101DE0001F46E4E7534532D001340A35B442C8D324
:101DF000019B3344019303989842B4D8DDF814B0A2
:101E000027E00199081D40000AA91022FEF7A8FE4C
:101E10000826039A151D019800EB80031D446D00F0
:101E200000244FF6FF7AACE7DDF814B001E0DDF8EE
:101E300014B0079BCBF80030089BCBF8043000238C
:101E4000CBF8083001990C44ABF80C4001E0DDF808
:101E500014B0584613B0BDE8F08F00BFC59D1C817B
:101E6000930100010300018000B585B0014668467A
:101E7000FFF746FF0098003018BF012005B05DF85D
:101E800004FB00BF30B583B0054603683BB38089CF
:101E9000043040000DF106010222FEF761FEBDF89C
:101EA0000630DB43ADF80630A889043040000DF160
:101EB00006010222FFF7E6F8FFF718FC04460028A7
:101EC000FAD0A889043040000DF106010222FEF785
:101ED00047FEBDF8063023B92B606B6002E000249A
:101EE00000E00024204603B030BD00BF00B585B03F
:101EF00001466846FFF704FF6846FFF7C3FF05B0D9
:101F00005DF804FB2DE9F04F8BB005460C46924678
:101F1000FFF7AAFF002840F0DE80FFF7BFFE8146F2
:101F2000002800F0DA8086B24FF0000B4FF6FF7801
:101F30000BF108039E4280F0D680CBEB06070BF135
:101F40000400400006A97A00FEF70AFEA7B1BDF81A
:101F5000183043450BD104E032F8021F414508D147
:101F600000E0002303EB0B07BE4209D8B7E006AA46
:101F700000230133BB42EFD3BB445E45D8D8BBE05E
:101F800006EB46039B00009303F1080837B94FEABC
:101F900019494FEA094908EB993937E000200590C3
:101FA00006F10043013B07EB87029818400003A9A4
:101FB0000A22FEF7D5FD039B049A02EB0309059B59
:101FC00008EB830301939B464FF00008584606A98F
:101FD0001022FEF7C5FD08F101039DF8182062B933
:101FE00003E0013312F8011F51B90199CA1C1344CF
:101FF000DFF81C8103EA080808E006AA08F11008C7
:102000004345EED10BF1100B9846DFE7BAF1000F14
:102010000DD00AF1FF339944B9FBFAF90AFB09F92B
:10202000013C5444B4FBFAF40AFB04F403E009F164
:10203000FF0929F0FF09284604F042FE834606A85E
:10204000FFF722F909EB040A06A8FFF7FBFC82451B
:1020500047D8404629460BF10102FFF713F8CDF8A7
:102060000C900494009AC2EB0803083B9B0805936C
:10207000301D07EB87031844400003A90A22FFF72D
:1020800001F8FFF733FB0028FBD02B784BB11D4A3A
:102090001D495A4001FB02F215F8013F002BF8D10F
:1020A00000E0184A5108194BA3FB01039B0BC3EB3B
:1020B000C333A2EB430301339BB20AA941F81C3D91
:1020C000381D40000222FEF7DDFFFFF70FFB03463D
:1020D0000028FAD011E000230FE000230DE00023D8
:1020E0000BE0002309E00BF10400400006A91022D8
:1020F000FEF736FD08272AE7002318460BB0BDE897
:10210000F08F00BFC59D1C81930100010300018079
:10211000FCFF03002DE9F04788B080460F46924649
:1021200000230370FFF7BAFD00285BD086B2344B62
:102130001C88A64258D9251D6D004FF0020928467B
:102140000DF106014A46FEF70BFDBDF8063023B936
:1021500001340235A642F2D848E0621C284B1A80AE
:1021600000230393B01D04EB84042044400002A923
:102170000622FEF7F5FC029BB3F1FF3F38D0CAF808
:102180000030039B03F1020906EB4606B1444FEA17
:10219000890917B3102F34BF3E461026484604A9BC
:1021A0003246FEF7DDFC8EB108F101039DF81020E8
:1021B00088F80020F2B104ADB04404E015F8014FF6
:1021C00003F8014BC4B14345F8D100E04346B144A4
:1021D000BF1B01D09846DDE79846002308F8013C74
:1021E00001200AE0002008E0002006E0002004E0D2
:1021F000002002E0012000E0012008B0BDE8F087E7
:102200000811FF1F184B1A6842F480521A60174BCE
:10221000174A1A60174ADA6002F180421A61164AB8
:102220001A60164B1B7813F0010F07BF4FF41072A2
:10223000134B4FF40072134B1A60104B1B7813F0C2
:10224000020F4FF400720CBF0F4B104B1A600B4B78
:102250001B7813F0040F07BF4FF410720C4B4FF4B0
:1022600000720C4B1A6070473C80044000C0024072
:1022700001401F000110003800001F802512FF1FC1
:1022800018B0044008C004401CB004400CC0044016
:1022900014B0044004C00440024A137813F0010F44
:1022A000FBD070470100024010B584B01B4B6C4658
:1022B000186859689A68DB680FC4194B1B7813F0CB
:1022C000020F23D0174B1B7813F070031CBF154A65
:1022D00013708022144B1A700022033B1A701222D2
:1022E00007331A700522013B1A7072B66B4643F031
:1022F00001030C4C2046984762B6237813F0700314
:1023000004D0237008E0013B02D105E0074B0449EB
:102310000A7812F0010FF6D004B010BD547000001E
:10232000010002400000024007000240410D03008E
:1023300070B504460D468E180C4B1B7813F0010F38
:1023400001D1FFF7B1FFB6F5805F34BF32464FF4DD
:102350008052954209D205F1A05102F1A05211F824
:10236000013B04F8013B9142F9D170BD01000240EC
:102370002DE9F04106460F4615460C46B1F5805F43
:1023800067D2354B1B7813F0010F01D1FFF78CFF9B
:10239000B5F5805F28BF4FF480557B19B3F5805F9A
:1023A00028BFC7F58055002D53D02C4F14F00303E0
:1023B0001ED1032D1ED933787178B278120442EA07
:1023C00001221A4306F10408F37842EA036204F199
:1023D000A0531968914207D0397811F0700118BFE5
:1023E00039701A60FFF758FF0434043D46462EE06A
:1023F000022B18D1012D16D906F102087278337814
:1024000043EA022204F1A0531988914207D0397897
:1024100011F0700118BF39701A80FFF73DFF0234C8
:10242000023D464613E006F10108327804F1A0535C
:102430001978C9B2914207D0397811F0700118BFEC
:1024400039701A70FFF728FF0134013D4646002D10
:10245000ACD1BDE8F08100BF0100024000000240A5
:10246000044B00221A6004490A60044A10601022DA
:102470001A60704714D0034004D0034000D00340DA
:102480003F281ED80F4B53F8303093F8802212F0BB
:10249000FF0F08D019B1012283F880207047012274
:1024A00083F800217047074B03EBC000436821B15C
:1024B0001A6842F003021A6070471A6822F002029A
:1024C0001A607047647000003F284AD8254B03EB20
:1024D000C0035B68012911D004291DD0214A52F89C
:1024E0003020002082F8800200292FD0022931D02C
:1024F00003291FD040F203121A607047194A52F89C
:102500003020012182F880124FF4A2721A601A68FA
:1025100022F020021A607047124A52F8302001213E
:1025200082F880124FF4A2721A601A6842F02002F8
:102530001A6070474FF480721A601A6842F0020203
:102540001A601A6822F001021A6070474FF4807214
:102550001A6070474FF480721A601A6842F00302E2
:102560001A6070476470000072B60D4B1B680D4A0C
:1025700012680D49096862B611F0806F02D0322BE3
:1025800088BF0132C3F58C3303F23F130749A1FB27
:1025900003031B094FF47A7000FB0230704700BF41
:1025A00018E000E03011FF1F04ED00E0398EE33841
:1025B00038B50546FFF7D8FF044625B938BD013DBB
:1025C0000AD004F57A74FFF7CFFF001BB0F57A7FCD
:1025D000F5D200F0C9FFF6E738BD00BF70B5344B47
:1025E0004FF000621A604FF080521A604FF00052B4
:1025F0001A604FF080421A604FF000421A600020CB
:102600002C4B186048F6FF710433196028232A4ABE
:102610001360083213600832136008321360083206
:102620001360083213600832136008321360234DC0
:102630002B60234C236002F5002202F6D87213604F
:1026400008321360083213600832136008321360D6
:102650000832136009221B4E326006F5805604369C
:102660003060043631600436336008363360143E1F
:10267000326006F5FE2604363060043631600436DA
:10268000336008363360143E326006F580560436F7
:1026900030600D4801602B6023600C4B1A6000F025
:1026A00093FF4FF4C870FFF783FF00F065FC70BD27
:1026B00004E100E0048003400C8003400C900B40D8
:1026C00014900B400080034008900B4000900B409A
:1026D00030B40E4B1B7843F002020D4C04EBC204E5
:1026E00060600C48007800280CBF8824C82444EAA5
:1026F0000141074D45F8321080F00100054A107085
:1027000083F00103014A137030BC70479C11FF1F16
:102710000000FF1F1512FF1F10B4431E032B11D81A
:1027200072B60A4A52F8230050B14268074941F88C
:102730002320074A32F813400188611A22F8131047
:1027400062B600E000205DF8044B70478C11FF1F5B
:10275000D415FF1F013803280DD872B6074B53F864
:1027600020302BB1002001305B68002BFBD100E052
:10277000002062B670470020704700BFE011FF1FC5
:1027800038B572B601231B491B4C5A1812F8012C9C
:1027900012F0080F24D09A0054F832506DB9164B3D
:1027A00003EBC20108304860144943F83210144B5F
:1027B0001A78013A1A7062B638BD42F0010254F834
:1027C00032506DB90C4B03EBC201083048600D4923
:1027D00043F832100A4B1A78013A1A7062B638BDC3
:1027E0000133052BD1D162B60022054B1A7000F0DF
:1027F0002DFC38BD887200000000FF1F88004000DB
:102800000A12FF1FC800400010B4431E032B37D824
:10281000400140F010001C4A104472B61B4AD25CC2
:10282000032A09D8DFE802F019021B05083002224A
:1028300016E00830042213E0154A52F823201AB992
:10284000134A42F8231003E0124A52F82320516041
:10285000104A42F8231062B612E0032200E005227B
:102860000A4CE25401F10803436000F00803002B16
:102870000CBF8823C8230A8843EA0243036062B678
:102880005DF8044B704700BF0000FF1F4811FF1F99
:10289000E011FF1FF011FF1F2DE9F84FA84CDFF8E2
:1028A000F092DFF8F0A2DFF8F0B22578EDB215F083
:1028B000040F1DD0A34B1B7813F0FF0F16D0A24BB3
:1028C0001B7803F0FF022BB1531EDBB29E4A13703C
:1028D00003B900BE9D4B1B7803F0FF0233B1531EBA
:1028E000DBB29A4A13700BB900F0DCFD04232370AD
:1028F00015F0080F00F0D48299F80030DBB21D0902
:1029000040F01582924D9E0805EBC6035A6855F8B3
:102910003630C3F38303013B0C2B00F20482DFE863
:1029200013F0BB01BB010202020202020202020218
:102930000202DC010202020202020D008549136854
:102940000B6052684A60844A45F836200022834969
:102950000A607F490A618A610121814A11709BB234
:1029600040F28162934218D8B3F5D06F29D2B3F503
:10297000817F00F0178106D8802B00F0C380822B66
:1029800000F0C68056E140F20232934200F01F810F
:10299000B3F5A06F00F052814CE1B3F5106F16D083
:1029A00004D8B3F5086F00F0A78043E140F6211288
:1029B000934200F06D8140F62122934200F03E8167
:1029C00038E1684B5D68002D40F016812EE1614BC7
:1029D0009A785C4B1A705E4D05F180062B6A13F0F5
:1029E000800F03D0686A083800F030FB0835B54224
:1029F000F4D1DFF8A881002637465B4AB05828B1E9
:102A0000456800F023FB0DB12846F9E7002356493D
:102A10007350564AB350564BF05828B1456800F0F1
:102A200015FB0DB12846F9E7002351497350514A6F
:102A3000B35028F8023F504BFB5C023B032B0AD8F3
:102A4000DFE803F00206020600224B4BDA5502E0F3
:102A50000122494BDA5501370436102ECDD1002220
:102A6000464B1A700125464FDFF83481384E05EB8E
:102A7000080313F8013C07F8043B13F0080F2DD0AE
:102A800000F0C4FA48B1A90006EB451200F10803B2
:102A900053603C4A46F8312007E0AB00002246F87C
:102AA0003320364B1A7801321A7000F0AFFA58B161
:102AB000AB0043F0010306EBC30100F108024A60DA
:102AC000254A46F8332009E0AB0043F00103002219
:102AD00046F83320294B1A7801321A70AA0042F0C6
:102AE0000201002346F8313042F0030246F832304A
:102AF00001355F45BBD114E2124B1B78224D2B7080
:102B00000127A0E0204D00232B706B7002279AE074
:102B1000104B9B88042B03D90F221C4B1A70B7E073
:102B2000194A002111705170184A12F8233013F01D
:102B3000020F00F08680144D01232B70022782E0E3
:102B4000802007401412FF1F9D11FF1F2412FF1F3A
:102B50000000FF1F0012FF1FC80040003411FF1FBC
:102B60001512FF1F8C7200008C11FF1F3811FF1F00
:102B7000E011FF1FF011FF1F4811FF1F0A12FF1F76
:102B8000C4200740880040000C12FF1FC0200740EF
:102B90009020074094200740D4200740D215FF1F03
:102BA00088720000964B9B8803F07F03042B02DCA5
:102BB000934A52881AB10F22924B1A7068E0914AD8
:102BC00012F8231021F0020102F82310A9E18C4B26
:102BD0009B8803F07F03042B02DC894A52881AB1D8
:102BE0000F22884B1A7053E0864A12F8231041F0E6
:102BF000020102F8231094E1814B5E889F88824B8A
:102C0000A3F10C02114633F80C0CB04209D133F891
:102C10000A0CB84205D1360A032E0CBF2F7817894B
:102C200011E00D690C330C32002DEBD10F22754BE6
:102C30001A702DE00F22734B1A7029E000273D46D1
:102C400001E00227714D6E4BDB889F4228BF1F4673
:102C5000402F34BF3E46402628463146FFF738FD18
:102C60003544BF1B03D13F2E00F2608110E0402F9E
:102C700034BF3E46402628463146FFF729FD3544FD
:102C8000BF1B01D13F2E03D9614B1D60614B1F80DB
:102C900001238AF8003046E0594B19685E4B99428F
:102CA00017D1574B59685D4B994212D11378A92B14
:102CB0000FD15378452B0CD19378C22B09D1D378FF
:102CC0006B2B06D10522564B1A7000200146FFF7E8
:102CD000FFFC544B45F8363025E04D4B1E68BEB125
:102CE0004C4FB7F80080B8F1400F34BF454640253F
:102CF00030462946FFF7ECFCC5EB08039BB23B804E
:102D00000BB9402D01D1354400E00025404B1D603A
:102D10003B4B1B88B3F5A06F05D1394B00225A708D
:102D20009B7841490B7001238AF80030B5E03F4E93
:102D30009F0806EBC708D8F80420A2F10800013D5F
:102D4000EDB213F0080F47D000F080F9384B53F87C
:102D500025304BB35A68364941F8252003F1080263
:102D6000C8F80420334A525D032A12D8DFE802F083
:102D700002060A0E03212F4A51550AE002212D4A6C
:102D8000515506E005212B4A515502E00421294AFC
:102D9000515518F0080F0CBF8822C8221B8842EA40
:102DA000034346F8373078E0224B5B5D032B0BD8AA
:102DB000DFE803F07373020600221E4B5A556CE0E5
:102DC00001221C4B5A5568E018F0080F0CBF022274
:102DD0000322184B5A5560E056F837301B0C22F886
:102DE000083C002B51D0002322F8063C42F8043C5A
:102DF000114B53F825300BBB0F4B43F8250021E056
:102E00000012FF1FC0200740987200000C12FF1F25
:102E10003411FF1F0812FF1F2109000301000400E5
:102E20009D11FF1FC8004000982007400000FF1FB1
:102E3000E011FF1F4811FF1F8C11FF1F3F4B53F87C
:102E4000253058603D4B43F825003D4B33F81510B5
:102E500032F8082C0A4423F8152000F0D7F860B1A6
:102E600000F10803C8F8043018F0080F354B364A53
:102E700008BF134646F837300FE0002346F83730D6
:102E8000324B1A7801321A7007E018F0080F2D4BF8
:102E90002D4A08BF134646F837300823237004E54F
:102EA00015F0010F22D02A4902230B700022294B72
:102EB0001A70294B24481860284C5C609860284898
:102EC000D8601A619A610D20264B1870FF2326489E
:102ED00003700838037018300270244A13709F2260
:102EE000234B1A7001230B70BDE8F88F15F0800F8B
:102EF00005D00D221B4B1A708022403B1A7015F032
:102F0000020F06D0184B1A78D2B21A700222083B70
:102F10001A7015F0100F0ED01022164B1A70BDE863
:102F2000F88F00200146FFF7D3FBB1E628460021C9
:102F3000FFF7CEFBACE6BDE8F88F00BF3811FF1FEE
:102F4000D415FF1FC8004000880040000A12FF1F70
:102F5000942007409C11FF1F0000FF1F4C11FF1F12
:102F6000A011FF1FC0200740882007408C20074089
:102F7000842007408020074008B502F0D3FE0023DC
:102F80001C491A465A50C81842600833882BF9D198
:102F9000194B1A6842F480221A60184B1A6842F0E2
:102FA00040721A60134BC3F30721154A1170C3F323
:102FB0000741143211701B0E04321370FF23343A90
:102FC000137008321370783A13700123843213702F
:102FD00000216C3211707C3A13707022094B1A7008
:102FE0004FF40012A3F231331A601022064B1A700C
:102FF00008BD00BF0000FF1F3480044000D800401F
:103000009C20074035E400E00821074072B60D4BD4
:103010001A68B2FA82F30B2B02D962B6002070470D
:103020004FF00041D94022EA010206490A6062B627
:10303000054903EBC303DB00C8180022CA504260F5
:10304000704700BF6007FF1F0004FF1F08B50F4B4C
:10305000C31A0F4AA2FB03131B090B2B14D80D4AEA
:1030600012783AB10C4A127812F0FF0F02D0FFF733
:1030700087FB08BD72B6094A4FF0004121FA03F3FD
:1030800011681943116062B608BD00BF0004FF1F3C
:10309000398EE3380A12FF1F1412FF1F6007FF1F4B
:1030A0002DE9F04383B081460C46234B1B68009307
:1030B000009E224B1B7813F0FF0F31D004251E4FCA
:1030C000DFF878802846FFF727FB034670B93B6896
:1030D0000193019B9B1BA34225D834B300F044FA13
:1030E00098F8003013F0FF0FECD120E000F1080257
:1030F00000F14801166855689468D068C9F8006006
:10310000C9F80450C9F80840C9F80C00103209F198
:1031100010098A42EED11846FFF798FF402008E0D8
:103120004FF0FF3005E0002003E0002001E04FF009
:10313000FF3003B0BDE8F0833011FF1F1412FF1FF2
:10314000044B1B7813F0FF0F1ABF034BD8880020E5
:10315000704700BF1412FF1FD415FF1F2DE9F04365
:1031600083B081460E46234B1B680093009D224B83
:103170001B7813F0FF0F32D003241E4FDFF8788046
:103180002046FFF7E7FA032803D8FFF73FFF014681
:1031900068B93B680193019B5B1BB34222D800F0E6
:1031A000E3F998F8003013F0FF0FE9D11CE04B462B
:1031B00000F1080209F140091E685D689C68D86842
:1031C000166055609460D060103310324B45F3D1D7
:1031D00040240C800320FFF717FB204606E04FF049
:1031E000FF3003E0002001E04FF0FF3003B0BDE806
:1031F000F08300BF3011FF1F1412FF1FF8B5194BE9
:103200001B7813F0FF0F24D0174C0227154E2068AF
:1032100020B93846FFF780FA2060E8B14388C21829
:10322000157A6DB101330288934206D3FFF70EFF82
:1032300000220D4B1A602846F8BD43802846F8BD91
:10324000FFF704FF00232360337813F0FF0FDED174
:1032500005E04FF0FF30F8BD4FF0FF30F8BD4FF004
:10326000FF30F8BD1412FF1F2012FF1F70B5134B63
:103270001B7813F0FF0F16D0114C02260F4D20685B
:1032800020B93046FFF748FA206078B143880344FC
:103290001B7A73B9FFF7DAFE002323602B7813F053
:1032A000FF0FECD107E04FF0FF3070BD4FF0FF3063
:1032B00070BD184670BD4FF0FF3070BD1412FF1F77
:1032C0002012FF1F38B5194B1B6853B9184B1B78D8
:1032D00013F0FF0F24D00220FFF71EFA134B1860E3
:1032E00000B3124B1868058843889D4212DDC2184E
:1032F000127A7AB103F108020244ED1A012303E0C5
:1033000012F8011F013319B11C46AB42F8D100E09D
:1033100023464BB9FFF79AFE0020044B186038BDD6
:10332000002038BD002038BD204638BD2012FF1FC8
:103330001412FF1F2DE9F047044601223B4B1A707F
:103340000F4600296DD0DFF8F090DFF8F0A01E46A0
:10335000DFF8DC80D9F80030A3BB9AF8003013F016
:10336000FF0F06D10022314B1A704FF0FF30BDE83D
:10337000F08743F601450120FFF7ECF9052806D850
:1033800001233370FFF742FEC9F80000D0B9013DB8
:1033900002D098F800304BB10122254B1A70002260
:1033A000224B1A704FF0FF30BDE8F08700233370D6
:1033B00000F0DAF8012333709AF8003013F0FF0FB1
:1033C000D9D1CFE7002388F80030D9F800104A8817
:1033D000C2F14005AF4238BF3D4602F108030B443D
:1033E0002A444A807F1B3DB1254414F8012B03F881
:1033F000012BAC42F9D100E025464B883F2B03D886
:1034000005220C4B1A7009E040230B800024094B65
:103410001C700120FFF7F8F9C9F800400FB12C46E5
:1034200098E70020014B1870BDE8F0871612FF1FC7
:103430001C12FF1F2412FF1F1812FF1F1412FF1F60
:1034400000B583B002AB03F8010D18460121FFF768
:1034500071FF03B05DF804FB08B50F4B1B7813F048
:10346000FF0F17D00D4B1968A1B14A8892B1002007
:103470000B4B187013463F2A04DCCA181072013334
:10348000402BFAD140230B800120FFF7BDF9002229
:10349000024B1A6008BD00BF1412FF1F1812FF1F55
:1034A0002412FF1F08B50C4B1B7813F0FF0F12D12D
:1034B0000A4B19684B883F2B05DC0020CA18107294
:1034C0000133402BFAD140230B800120FFF79CF9F8
:1034D0000022024B1A6008BD1612FF1F1812FF1FB0
:1034E00000B583B0054B1B88ADF8043003685B68FA
:1034F00001A90222984703B05DF804FB6472000042
:1035000008B5FCF7AFFFFCF7E9FF00F02DF8FAE78C
:1035100008B5FFF7D7FE08BD08B5FFF76FFE08BD79
:1035200008B5FFF7A3FE08BD08B5FFF795FF08BD76
:1035300008B50846FFF784FF08BD00BF08B5084678
:103540001146FFF7F7FE08BD704700BF044B00228D
:103550001A714FF47A7199601A73024A1A607047AF
:103560002812FF1F7072000008B5164B1B7843BB72
:103570000122144B1A70FFF7A5FE08B1FFF7E4FF14
:1035800000F0D6FB08B102F0A3FC00F0A3FF08B1E5
:1035900002F040FD01F076FA08B102F0DDFD01F025
:1035A00087FD08B102F07AFE02F02AF808B102F0B5
:1035B00017FF02F0CDFA08B102F0B4FF0022014B70
:1035C0001A7008BD3812FF1F60223A4B1A70E122B0
:1035D00001331A70384B1B78082B10D1012203F1EC
:1035E000804303F56C331A60132334490B6001F5F3
:1035F000FF2101F2FC710A60314A13601FE00A2BBF
:103600000DD119222F4B1A6013232C490B6001F5A1
:10361000FF2101F2FC710A60294A13600FE00C2BB4
:103620000CBF15223D22274B1A60122323490B6041
:1036300001F5FF2101F2FC710A60214A1360224B5F
:103640001B7833B10123214A136002F50022136075
:1036500005E000231D4A136002F5002213601C4B95
:103660001B78012B06D880231A4A136002F500222A
:1036700013601AE0042B06D88423164A136002F55F
:103680000022136011E0082B06D88523114A13602D
:1036900002F50022136008E0102B94BF86238723D5
:1036A0000C4A136002F50022136001220A4B1A70C3
:1036B000704700BF004007406407FF1F0CB0034085
:1036C0000CB00B4008B003403A12FF1F20B003407B
:1036D0006507FF1F24B003403912FF1F024B1A6811
:1036E00001321A60704700BF3011FF1F08B50D4C42
:1036F000236813F4802F01D0FFF7CEF8236813F46A
:10370000806F01D000F09EFB236813F4006F01D09E
:1037100000F06AFF236813F4805FE9D001F028FA13
:10372000E6E700BF3480044008B5FFF7DFFF00BFC5
:103730001022014B1A80704700200540704700BFDF
:10374000024A136818441060184670476807FF1F44
:10375000EFF31383ABB9EFF31083ABB9EFF305834A
:1037600023B10F2B05D9094A985C03E04FF4807010
:1037700000E00020EFF311833BB1834238BF1846CD
:1037800070474FF0FF30704700207047F0E300E0D3
:1037900030B40023B0FBF2F402FB14041D46092CE4
:1037A00094BF30343734E4B2CC54B0FBF2F008B1FB
:1037B0000133EFE70D4400226A70934207DD885C15
:1037C000CC5C8C54C8540132013B9A42F7DB08466A
:1037D00030BC70472B4B1A6842F480621A60002399
:1037E000294A1370294A1370294A1370294A137001
:1037F000294A1370294B1B78152B07D01B2B0AD095
:103800006BB940F21332264B1A6008E040F21332D3
:10381000244B1A6003E040F21332234B1A60234B0F
:103820001B78052B08D01A2B0BD0012B0DD14FF490
:1038300051721F4B1A6008E04FF451721D4B1A6011
:1038400003E04FF451721C4B1A60C0F344321B4B1F
:103850001A70C0F347125A7000F01F0098720422C9
:103860009A700221D9745A7588221A743C22DA702F
:103870004022134B1A704FF00042A3F21F331A601C
:10388000704700BF34800440C812FF1F4112FF1F61
:10389000D012FF1FC912FF1F4012FF1F8412FF1F0B
:1038A00040A0044018C004403C9004406C07FF1F37
:1038B00044A004401CC004403890044000A00640CE
:1038C0001FE400E01B4B9B7803F0EC0300F00302C5
:1038D000134310F0040F18BF43F01003154A937000
:1038E00000F00F03042B04D11346927942F04002FA
:1038F0009A71104B5A7902F0EF0210F0100F18BFB6
:1039000042F010020B4B5A719B7903F0EF0310F059
:10391000200F18BF43F01003064A937110F4807F04
:1039200007D013465278D2B2197841F020011970AD
:103930005A70704700A0064010B5144B1B6813F472
:10394000806F21D0124B1B7813F0FF0F06D0104C64
:10395000FFF70AFE237813F0FF0FF9D14FF0004272
:103960000C4B1A6000230C4AD37040F203120B492F
:103970000A6004310A600A4A13700A4A13700A4B3B
:103980001B680BB101221A7010BD00BF34800440C7
:103990004012FF1F80E100E000A0064040A004406C
:1039A000C812FF1F4112FF1F3C12FF1F10B5044633
:1039B000094A137813F0FF0FFBD120460121FEF7CF
:1039C00083FD20460021FEF75BFD044B53F83420B5
:1039D000034B1A6010BD00BF4012FF1F647000004F
:1039E000CC12FF1F10B40C4609B140F080001D4BF3
:1039F0001B78984233D01C4A126812F4806F2CD086
:103A000003F07F03052B07D01A2B09D0012B0AD115
:103A10000022164B1A6006E00022154B1A6002E0E5
:103A20000022144B1A60002C0CBF4422602200F0CC
:103A30007F03052B08D01A2B0BD0012B0DD142F49C
:103A400040720A4B1A6008E042F44072084B1A6058
:103A500003E042F44072074B1A60024B18705DF8A5
:103A6000044B70476C07FF1F3480044044A004409F
:103A70001CC0044038900440174B1B78984229D052
:103A8000164A126812F4806F22D0152B06D01B2B19
:103A900008D053B90022124B1A6006E00022114BE5
:103AA0001A6002E00022104B1A60152807D01B286C
:103AB0000AD068B940F21332094B1A6008E040F2AC
:103AC0001332084B1A6003E040F21332064B1A60BF
:103AD000014B1870704700BF8412FF1F34800440F0
:103AE00040A0044018C004403C90044010B50D4B69
:103AF0001B6813F4806F12D03F280CD80A4C0B4B74
:103B000053F8303023600121FEF7DEFC23680022E9
:103B10001A70012010BD0020034B186010BD00205A
:103B200010BD00BF348004403C12FF1F64700000D1
:103B3000114B1B6813F4806F1BD0122804D140F284
:103B400002320E4B1A600DE0142804D140F202320A
:103B50000B4B1A6006E00B4B5A7B02F0FE025A73C5
:103B600000207047074B5A7B42F001025A73012034
:103B700070470020704700BF348004400CA0044010
:103B800014C0044000A006402DE9F04107461F4B39
:103B90001B6813F4806F37D01D4B1B680BB10122DB
:103BA0001A701C4B1C780134402C28BF00241A4D7D
:103BB0001A4EDFF86C8017E0FFF7CAFD40280FDCD3
:103BC000337913F0800F0FD02B780133402B28BFAF
:103BD000002318F80320D2B2F271DBB22B7003E09D
:103BE000FF2801DDFFF7C0FC2B78DBB29C42E3D05D
:103BF000FFB20B4B1F5501220A4B1A70E4B2054B62
:103C00001C70BC22054BDA70BDE8F08134800440A2
:103C1000CC12FF1FD012FF1FC912FF1F00A00640C9
:103C20004412FF1F4012FF1F2DE9F84F0746284B93
:103C30001B6813F4806F49D0264B1B680BB101221F
:103C40001A7007EB010B5F453DD2DFF89890224ECA
:103C5000DFF88C80DFF890A099F800400134402C08
:103C600028BF00243578EDB2A54220D1BC2388F8C6
:103C70000330FFF76DFD402811DC98F8043013F095
:103C8000800F10D033780133402B28BF00231AF85F
:103C90000320D2B288F80720DBB2337003E0FF289C
:103CA00001DDFFF761FC3378DBB29D42E1D017F80C
:103CB000013B0AF804300122084B1A70E4B289F87B
:103CC00000405F45C8D1BC22054BDA70BDE8F88FD3
:103CD00034800440CC12FF1FC912FF1F4012FF1F87
:103CE00000A00640D012FF1F4412FF1F10B5064B64
:103CF0001B7813F0FF0F06D0034CFFF735FC237839
:103D000013F0FF0FF9D110BD4012FF1F064B1B78B7
:103D1000DBB2064A1278D2B293422CBF3F3202F194
:103D2000FF32D01A704700BFD012FF1FC912FF1F09
:103D3000054B1878C0B2054B1B78DBB2984238BFF0
:103D40004030C01A704700BFC812FF1F4112FF1F4A
:103D500010B4184B1A78D2B2174B1B78DBB29A42C8
:103D600018D001333F2B18D81449C85CC0B2DCB25C
:103D700011490C7012490968C9B19A4203D300E095
:103D80000023D31A01E04032D31A1A2B0FDC002390
:103D90000B700CE04FF0FF3009E0084B1878C0B210
:103DA0000021054B1970064B19680029E8D15DF810
:103DB000044B7047C812FF1F4112FF1F8812FF1FDC
:103DC0003C12FF1F094B1A78D2B2094B1B78DBB2A9
:103DD0009A4207D00133402B28BF0023054AD05C0C
:103DE000C0B270474FF0FF30704700BFC812FF1FCE
:103DF0004112FF1F8812FF1F0D4B1B6813F4806FC9
:103E000014D00C4BDA7802F0CB02DA7040225A74EC
:103E1000DA7842F03402DA70074B1A78D2B2074BE4
:103E20001A70074B1B680BB100221A70704700BF55
:103E30003480044000A006404112FF1FC812FF1F3B
:103E40003C12FF1F70B43D4B1B7913F0300F33D081
:103E500072B63A4B9B7D03F0FF022BB9374BDA79F0
:103E600040225A7462B627E062B6354B1978C9B25F
:103E7000344B1C78E4B2314D334EEB79D8B24B1C45
:103E8000402B28BF0023A3421CBFF0541946531EE9
:103E900013F0FF02F1D1CAB2294B1A702B4B1B68E9
:103EA00053B1A1422EBFC4EB0101C4F14004091972
:103EB0002729C4BF01221A70204BDA78D2B212F03F
:103EC000800F27D01B7913F0800F23D0204B1C7854
:103ED000E4B2204B1B78DBB29C4210D017491E4D38
:103EE00001E0A3420BD00133402B28BF0023087907
:103EF000E85CC0B2C871087DC0B20728F1D9DBB256
:103F000014490B700D4B1B7913F0800F02D07C21EC
:103F10000A4BD97012F0400F0ED0084B1B7913F0EA
:103F2000400F09D000220D4B1A700D4B1B6803B1D6
:103F30001A703C22014BDA7070BC704700A006403A
:103F4000C812FF1F4112FF1F8812FF1F3C12FF1FE4
:103F5000D012FF1FC912FF1F4412FF1F4012FF1F84
:103F6000CC12FF1F2A4B1A6842F400621A60002329
:103F7000284A1370284A1370284A1370284A13706D
:103F8000284A1370284B1B781A2B08D03B2B0BD0D8
:103F9000092B0DD140F21332244B1A6008E040F295
:103FA0001332234B1A6003E040F21332214B1A60A4
:103FB000214B1B781F2B08D03A2B0BD00A2B0DD18D
:103FC0004FF451721D4B1A6008E04FF451721C4BB4
:103FD0001A6003E04FF451721A4B1A60C0F3443276
:103FE000194B1A70C0F347125A7000F01F009872F4
:103FF000042199700222DA745975882119743C21C0
:10400000D9704021114B1970A3F21D331A6070470B
:10401000348004404413FF1FD912FF1F4C13FF1FAD
:104020004513FF1FD812FF1F6D07FF1F0CB0044080
:104030003890044004D004406E07FF1F10B00440C5
:1040400028A0044000D0044000B0064021E400E075
:104050001B4B9B7803F0EC0300F00302134310F0BA
:10406000040F18BF43F01003154A937000F00F03BC
:10407000042B04D11346927942F040029A71104BFE
:104080005A7902F0EF0210F0100F18BF42F0100240
:104090000B4B5A719B7903F0EF0310F0200F18BF00
:1040A00043F01003064A937110F4807F07D0134643
:1040B0005278D2B2197841F0200119705A707047C5
:1040C00000B0064010B5214B1B6813F4006F3BD0C5
:1040D0001F4B1B7813F0FF0F06D01D4CFFF744FA5F
:1040E000237813F0FF0FF9D102221A4B1A60002235
:1040F000194BDA70194B1B78092B02D03B2B05D0DA
:1041000007E040F20312164B1A6002E00022154B42
:104110001A60154B1B7803F07F030A2B02D03A2B51
:1041200005D007E040F20312104B1A6002E00022B3
:104130000F4B1A6000230F4A13700F4A13700F4B76
:104140001B680BB101221A7010BD00BF34800440FF
:10415000D812FF1F84E100E000B006406D07FF1F8A
:104160000CB0044004D004406E07FF1F10B00440A0
:1041700000D004404413FF1FD912FF1FD412FF1FA9
:1041800010B50446094A137813F0FF0FFBD12046FF
:104190000121FEF799F920460021FEF771F9044B41
:1041A00053F83420034B1A6010BD00BFD812FF1F14
:1041B000647000004813FF1F10B40C4609B140F0B2
:1041C0008000184B1B78984228D0174A126812F4C6
:1041D000006F21D003F07F030A2B02D03A2B04D0CA
:1041E00006E00022114B1A6002E00022104B1A6018
:1041F000002C0CBF4422602200F07F030A2B02D067
:104200003A2B05D008E042F44072084B1A6003E0F4
:1042100042F44072064B1A60024B18705DF8044B72
:10422000704700BF6E07FF1F3480044010B0044089
:1042300000D00440124B1B78984220D0114A1268DB
:1042400012F4006F19D0092B02D03B2B04D006E0EA
:1042500000220D4B1A6002E000220C4B1A60092864
:1042600002D03B2805D008E040F21332064B1A601A
:1042700003E040F21332054B1A60014B187070478F
:104280006D07FF1F348004400CB0044004D004408C
:1042900010B50D4B1B6813F4006F12D03F280CD8DB
:1042A0000A4C0B4B53F8303023600121FEF70CF918
:1042B000236800221A70012010BD0020034B1860F3
:1042C00010BD002010BD00BF34800440D412FF1F79
:1042D00064700000114B1B6813F4006F1BD017288B
:1042E00004D140F202320E4B1A600DE03C2804D19A
:1042F00040F202320B4B1A6006E00B4B5A7B02F085
:10430000FE025A7300207047074B5A7B42F00102AD
:104310005A73012070470020704700BF348004406A
:1043200008B0044008D0044000B006402DE9F04138
:1043300007461F4B1B6813F4006F37D01D4B1B68DB
:104340000BB101221A701C4B1C780134282C28BF99
:1043500000241A4D1A4EDFF86C8017E0FFF7F8F9C9
:1043600040280FDC337913F0800F0FD02B78013306
:10437000282B28BF002318F80320D2B2F271DBB239
:104380002B7003E0FF2801DDFFF7EEF82B78DBB29E
:104390009C42E3D0FFB20B4B1F5501220A4B1A700F
:1043A000E4B2054B1C70BC22054BDA70BDE8F0810D
:1043B000348004404813FF1F4C13FF1F4513FF1F99
:1043C00000B00640DC12FF1FD812FF1F2DE9F84F86
:1043D0000746284B1B6813F4006F49D0264B1B6817
:1043E0000BB101221A7007EB010B5F453DD2DFF8DC
:1043F0009890224EDFF88C80DFF890A099F800406A
:104400000134282C28BF00243578EDB2A54220D1F4
:10441000BC2388F80330FFF79BF9402811DC98F89B
:10442000043013F0800F10D033780133282B28BFCD
:1044300000231AF80320D2B288F80720DBB23370C9
:1044400003E0FF2801DDFFF78FF83378DBB29D42F0
:10445000E1D017F8013B0AF804300122084B1A702A
:10446000E4B289F800405F45C8D1BC22054BDA7040
:10447000BDE8F88F348004404813FF1F4513FF1F29
:10448000D812FF1F00B006404C13FF1FDC12FF1FA5
:1044900010B5064B1B7813F0FF0F06D0034CFFF747
:1044A00063F8237813F0FF0FF9D110BDD812FF1F66
:1044B000064B1B78DBB2064A1278D2B293422CBF6D
:1044C000273202F1FF32D01A704700BF4C13FF1F92
:1044D0004513FF1F054B1878C0B2054B1B78DBB2A4
:1044E000984238BF4030C01A704700BF4413FF1FC6
:1044F000D912FF1F10B4184B1A78D2B2174B1B7881
:10450000DBB29A4218D001333F2B18D81449C85C4B
:10451000C0B2DCB211490C7012490968C9B19A42A3
:1045200003D300E00023D31A01E04032D31A1A2B40
:104530000FDC00230B700CE04FF0FF3009E0084B5C
:104540001878C0B20021054B1970064B1968002974
:10455000E8D15DF8044B70474413FF1FD912FF1FC9
:104560000413FF1FD412FF1F094B1A78D2B2094B54
:104570001B78DBB29A4207D00133402B28BF0023BF
:10458000054AD05CC0B270474FF0FF30704700BFA3
:104590004413FF1FD912FF1F0413FF1F0D4B1B688D
:1045A00013F4006F14D00C4BDA7802F0CB02DA70FF
:1045B00040225A74DA7842F03402DA70074B1A78E3
:1045C000D2B2074B1A70074B1B680BB100221A704E
:1045D000704700BF3480044000B00640D912FF1F6E
:1045E0004413FF1FD412FF1F70B43D4B1B7913F00F
:1045F000300F33D072B63A4B9B7D03F0FF022BB9DC
:10460000374BDA7940225A7462B627E062B6354BEE
:104610001978C9B2344B1C78E4B2314D334EEB7982
:10462000D8B24B1C402B28BF0023A3421CBFF05420
:104630001946531E13F0FF02F1D1CAB2294B1A706A
:104640002B4B1B6853B1A1422EBFC4EB0101C4F137
:10465000400409192729C4BF01221A70204BDA78B7
:10466000D2B212F0800F27D01B7913F0800F23D025
:10467000204B1C78E4B2204B1B78DBB29C4210D05C
:1046800017491E4D01E0A3420BD00133282B28BF50
:1046900000230879E85CC0B2C871087DC0B2072861
:1046A000F1D9DBB214490B700D4B1B7913F0800F5D
:1046B00002D07C210A4BD97012F0400F0ED0084B6B
:1046C0001B7913F0400F09D000220D4B1A700D4BCF
:1046D0001B6803B11A703C22014BDA7070BC704742
:1046E00000B006404413FF1FD912FF1F0413FF1F21
:1046F000D412FF1F4C13FF1F4513FF1FDC12FF1FB7
:10470000D812FF1F4813FF1F164B1A6842F480523D
:104710001A600023144A1370144A1370144A137059
:10472000144A1370144A137040F21331134A116083
:104730004FF4517104321160C0F34431104A1170CA
:10474000C0F34711517000F01F0090729370137402
:104750002C23D37040220B4B1A700822A3F21F3374
:104760001A60704734800440C013FF1F5513FF1FA9
:10477000C813FF1FC113FF1F5413FF1F08C00440BD
:1047800000C0064023E400E01B4B9B7803F0EC03E1
:1047900000F00302134310F0040F18BF43F010039E
:1047A000154A937000F00F03042B04D1134692793D
:1047B00042F040029A71104B5A7902F0EF0210F069
:1047C000100F18BF42F010020B4B5A719B7903F087
:1047D000EF0310F0200F18BF43F01003064A937147
:1047E00010F4807F07D013465278D2B2197841F086
:1047F000200119705A70704700C0064010B5134B65
:104800001B6813F4805F20D0114B1B7813F0FF0F4F
:1048100006D00F4CFEF7A8FE237813F0FF0FF9D156
:1048200008220C4B1A6000230B4AD37040F203128B
:104830000A490A6004310A60094A1370094A137070
:10484000094B1B680BB101221A7010BD3480044063
:104850005413FF1F84E100E000C0064008C004407C
:10486000C013FF1F5513FF1F5013FF1F10B5044641
:10487000094A137813F0FF0FFBD120460121FDF701
:1048800023FE20460021FDF7FBFD044B53F83420A6
:10489000034B1A6010BD00BF5413FF1F647000006B
:1048A000C413FF1F10B40C4609B140F08000104B38
:1048B0001B78984219D00F4A126812F4805F12D008
:1048C00003F07F03082B02D100220B4B1A60002C4F
:1048D0000CBF4422602200F07F03082B03D142F476
:1048E0004072054B1A60024B18705DF8044B70471C
:1048F0006F07FF1F348004400CC00440704700BFA6
:1049000010B50D4B1B6813F4805F12D03F280CD8F4
:104910000A4C0B4B53F8303023600121FDF7D4FDD6
:10492000236800221A70012010BD0020034B18607C
:1049300010BD002010BD00BF348004405013FF1F85
:10494000647000000D4B1B6813F4805F13D00E28B9
:104950000AD140F202320A4B1A600A4B5A7B42F0EB
:1049600001025A7301207047064B5A7B02F0FE0287
:104970005A73002070470020704700BF3480044005
:1049800004C0044000C006402DE9F04107461F4B1B
:104990001B6813F4805F37D01D4B1B680BB10122DD
:1049A0001A701C4B1C780134282C28BF00241A4D87
:1049B0001A4EDFF86C8017E0FEF7CAFE40280FDCC5
:1049C000337913F0800F0FD02B780133282B28BFB9
:1049D000002318F80320D2B2F271DBB22B7003E08F
:1049E000FF2801DDFEF7C0FD2B78DBB29C42E3D04F
:1049F000FFB20B4B1F5501220A4B1A70E4B2054B54
:104A00001C70AC22054BDA70BDE8F08134800440A4
:104A1000C413FF1FC813FF1FC113FF1F00C00640B0
:104A20005813FF1F5413FF1F38B505460C4629B114
:104A300015F8010BFFF7A8FF013CF9D138BD00BF05
:104A400010B5064B1B7813F0FF0F06D0034CFEF792
:104A50008BFD237813F0FF0FF9D110BD5413FF1F06
:104A6000064B1B78DBB2064A1278D2B293422CBFB7
:104A7000273202F1FF32D01A704700BFC813FF1F60
:104A8000C113FF1F054B1878C0B2054B1B78DBB272
:104A9000984238BF4030C01A704700BFC013FF1F94
:104AA0005513FF1F10B4184B1A78D2B2174B1B784E
:104AB000DBB29A4218D001333F2B18D81449C85C96
:104AC000C0B2DCB211490C7012490968C9B19A42EE
:104AD00003D300E00023D31A01E04032D31A1A2B8B
:104AE0000FDC00230B700CE04FF0FF3009E0084BA7
:104AF0001878C0B20021054B1970064B19680029BF
:104B0000E8D15DF8044B7047C013FF1F5513FF1F1A
:104B10008013FF1F5013FF1F094B1A78D2B2094BA5
:104B20001B78DBB29A4207D00133402B28BF002309
:104B3000054AD05CC0B270474FF0FF30704700BFED
:104B4000C013FF1F5513FF1F8013FF1F054B1A785B
:104B5000D2B2054B1A70054B1B680BB100221A70BC
:104B6000704700BF5513FF1FC013FF1F5013FF1FD7
:104B70002F4B1B7913F0200F23D02D4BDB79D9B2AB
:104B80002C4B1B780133402B28BF00232A4A127874
:104B9000D2B29A4204D0294AD154D9B2254A1170CE
:104BA000274A116869B1274A1278D2B293422EBFC0
:104BB000C2EB0303C2F140029B18272BC4BF0123A1
:104BC0000B701B4BDB78DBB213F0800F1CD0184A44
:104BD000127912F0800F17D01B4A1178C9B2194A06
:104BE0001278D2B2914203D16C21114AD1700BE0FC
:104BF0000132282A28BF00221449885CC0B20C491F
:104C0000C871D2B20F490A7013F0400F0ED0084B92
:104C10001B7913F0400F09D000220D4B1A700D4B79
:104C20001B6803B11A702C22014BDA70704700BF69
:104C300000C00640C013FF1F5513FF1F8013FF1F46
:104C40005013FF1FC113FF1FC813FF1F5813FF1F6F
:104C50005413FF1FC413FF1F234B1A6842F4005262
:104C60001A600023214A1370214A1370214A1370DD
:104C7000214A1370214A1370214B1B781F2B02D03D
:104C80003F2B05D008E040F213321E4B1A6003E0C0
:104C900040F213321C4B1A601C4B1B78202B02D0A5
:104CA0003E2B05D008E04FF45172194B1A6003E017
:104CB0004FF45172174B1A60C0F34432164B1A70FE
:104CC000C0F347125A7000F01F00987200229A70C9
:104CD0001A742C22DA704022104B1A702022A3F290
:104CE00021331A60704700BF348004403C14FF1F1A
:104CF000D113FF1F4414FF1F3D14FF1FD013FF1FCC
:104D00007007FF1F28A0044014D004407107FF1F44
:104D10002CA0044010D0044000D0064025E400E060
:104D20001B4B9B7803F0EC0300F00302134310F0DD
:104D3000040F18BF43F01003154A937000F00F03DF
:104D4000042B04D11346927942F040029A71104B21
:104D50005A7902F0EF0210F0100F18BF42F0100263
:104D60000B4B5A719B7903F0EF0310F0200F18BF23
:104D700043F01003064A937110F4807F07D0134666
:104D80005278D2B2197841F0200119705A707047E8
:104D900000D0064010B5244B1B6813F4005F41D0CF
:104DA000224B1B7813F0FF0F06D0204CFEF7DCFBE4
:104DB000237813F0FF0FF9D120221D4B1A60002237
:104DC0001C4BDA7040F203131B4A13600432136069
:104DD0001A4B1B781F2B02D03F2B05D007E040F267
:104DE0000312154B1A6002E00022154B1A60154B96
:104DF0001B7803F07F03202B02D03E2B05D007E069
:104E000040F20312104B1A6002E000220F4B1A60AE
:104E100000230F4A13700F4A13700F4B1B680BB11E
:104E200001221A7010BD00BF34800440D013FF1F50
:104E300084E100E000D0064028A004407007FF1F76
:104E400014D004407107FF1F2CA0044010D0044070
:104E50003C14FF1FD113FF1FCC13FF1F10B50446D6
:104E6000094A137813F0FF0FFBD120460121FDF70B
:104E70002BFB20460021FDF703FB044B53F83420A5
:104E8000034B1A6010BD00BFD013FF1F64700000F9
:104E90004014FF1F10B40C4609B140F08000184BBD
:104EA0001B78984228D0174A126812F4005F21D06C
:104EB00003F07F03202B02D03E2B04D006E000221B
:104EC000114B1A6002E00022104B1A60002C0CBF3C
:104ED0004422602200F07F03202B02D03E2B05D01D
:104EE00008E042F44072084B1A6003E042F440725A
:104EF000064B1A60024B18705DF8044B704700BFF8
:104F00007107FF1F348004402CA0044010D00440DF
:104F1000124B1B78984220D0114A126812F4005F9D
:104F200019D01F2B02D03F2B04D006E000220D4BDE
:104F30001A6002E000220C4B1A601F2802D03F28A2
:104F400005D008E040F21332064B1A6003E040F24D
:104F50001332054B1A60014B187070477007FF1F22
:104F60003480044028A0044014D0044010B50D4BF8
:104F70001B6813F4005F12D03F280CD80A4C0B4B6F
:104F800053F8303023600121FDF79EFA2368002298
:104F90001A70012010BD0020034B186010BD0020C6
:104FA00010BD00BF34800440CC13FF1F64700000AC
:104FB000002070472DE9F04107461F4B1B6813F492
:104FC000005F37D01D4B1B680BB101221A701C4BC0
:104FD0001C780134282C28BF00241A4D1A4EDFF803
:104FE0006C8017E0FEF7B4FB40280FDC337913F038
:104FF000800F0FD02B780133282B28BF002318F8FF
:105000000320D2B2F271DBB22B7003E0FF2801DD86
:10501000FEF7AAFA2B78DBB29C42E3D0FFB20B4B2F
:105020001F5501220A4B1A70E4B2054B1C70AC22CA
:10503000054BDA70BDE8F081348004404014FF1F56
:105040004414FF1F3D14FF1F00D00640D413FF1F60
:10505000D013FF1F38B505460C4629B115F8010BD2
:10506000FFF7A8FF013CF9D138BD00BF10B5064BD2
:105070001B7813F0FF0F06D0034CFEF775FA237868
:1050800013F0FF0FF9D110BDD013FF1F064B1B7893
:10509000DBB2064A1278D2B293422CBF273202F119
:1050A000FF32D01A704700BF4414FF1F3D14FF1F8A
:1050B000054B1878C0B2054B1B78DBB2984238BF5D
:1050C0004030C01A704700BF3C14FF1FD113FF1FB0
:1050D00010B4184B1A78D2B2174B1B78DBB29A4235
:1050E00018D001333F2B18D81449C85CC0B2DCB2C9
:1050F00011490C7012490968C9B19A4203D300E002
:105100000023D31A01E04032D31A1A2B0FDC0023FC
:105110000B700CE04FF0FF3009E0084B1878C0B27C
:105120000021054B1970064B19680029E8D15DF87C
:10513000044B70473C14FF1FD113FF1FFC13FF1FCC
:10514000CC13FF1F094B1A78D2B2094B1B78DBB284
:105150009A4207D00133402B28BF0023054AD05C78
:10516000C0B270474FF0FF30704700BF3C14FF1FC4
:10517000D113FF1FFC13FF1F054B1A78D2B2054B4A
:105180001A70054B1B680BB100221A70704700BFE4
:10519000D113FF1F3C14FF1FCC13FF1F2F4B1B7994
:1051A00013F0200F23D02D4BDB79D9B22C4B1B7879
:1051B0000133402B28BF00232A4A1278D2B29A42E8
:1051C00004D0294AD154D9B2254A1170274A11680E
:1051D00069B1274A1278D2B293422EBFC2EB0303C1
:1051E000C2F140029B18272BC4BF01230B701B4B3D
:1051F000DB78DBB213F0800F1CD0184A127912F062
:10520000800F17D01B4A1178C9B2194A1278D2B24E
:10521000914203D16C21114AD1700BE00132282A4E
:1052200028BF00221449885CC0B20C49C871D2B2B0
:105230000F490A7013F0400F0ED0084B1B7913F082
:10524000400F09D000220D4B1A700D4B1B6803B1A3
:105250001A702C22014BDA70704700BF00D0064054
:105260003C14FF1FD113FF1FFC13FF1FCC13FF1FA4
:105270003D14FF1F4414FF1FD413FF1FD013FF1F43
:105280004014FF1F164B1A6842F480621A60002314
:10529000144A1370144A1370144A1370144A13708A
:1052A000144A137040F21331134A11604FF45171D4
:1052B000043A1160C0F34431104A1170C0F3471131
:1052C000517000F01F009072937013742C23D370F0
:1052D00040220B4B1A700422A3F23A331A60704733
:1052E00028800440B814FF1F4D14FF1FC014FF1F77
:1052F000B914FF1F4C14FF1F64D0044000A00E40DF
:1053000042E400E01B4B9B7803F0EC0300F0030247
:10531000134310F0040F18BF43F01003154A9370A5
:1053200000F00F03042B04D11346927942F040029F
:105330009A71104B5A7902F0EF0210F0100F18BF5B
:1053400042F010020B4B5A719B7903F0EF0310F0FF
:10535000200F18BF43F01003064A937110F4807FAA
:1053600007D013465278D2B2197841F02001197053
:105370005A70704700A00E4010B5134B1B6813F411
:10538000806F20D0114B1B7813F0FF0F06D00F4C0D
:10539000FEF7EAF8237813F0FF0FF9D104220C4B43
:1053A0001A6000230B4AD37040F203120A490A60C4
:1053B00004390A60094A1370094A1370094B1B68C3
:1053C0000BB101221A7010BD288004404C14FF1F3D
:1053D00088E100E000A00E4064D00440B814FF1F34
:1053E0004D14FF1F4814FF1F10B50446094A1378D7
:1053F00013F0FF0FFBD120460121FDF765F8204691
:105400000021FDF73DF8044B53F83420034B1A609C
:1054100010BD00BF4C14FF1F64700000BC14FF1FC0
:1054200010B40C4609B140F08000104B1B78984234
:1054300019D00F4A126812F4805F12D003F07F0374
:10544000212B02D100220B4B1A60002C0CBF4422EE
:10545000602200F07F03212B03D142F44072054B00
:105460001A60024B18705DF8044B70477207FF1FFB
:105470003480044060D00440704700BF10B50D4B2D
:105480001B6813F4806F12D03F280CD80A4C0B4BCA
:1054900053F8303023600121FDF716F8236800220D
:1054A0001A70012010BD0020034B186010BD0020B1
:1054B00010BD00BF288004404814FF1F6470000026
:1054C0000D4B1B6813F4806F13D018280AD140F2DB
:1054D00002320A4B1A600A4B5A7B42F001025A739D
:1054E00001207047064B5A7B02F0FE025A730020DF
:1054F00070470020704700BF2880044068D00440F7
:1055000000A00E402DE9F04107461F4B1B6813F425
:10551000806F37D01D4B1B680BB101221A701C4BDA
:105520001C780134282C28BF00241A4D1A4EDFF8AD
:105530006C8017E0FEF70CF940280FDC337913F08C
:10554000800F0FD02B780133282B28BF002318F8A9
:105550000320D2B2F271DBB22B7003E0FF2801DD31
:10556000FEF702F82B78DBB29C42E3D0FFB20B4B84
:105570001F5501220A4B1A70E4B2054B1C70AC2275
:10558000054BDA70BDE8F08128800440BC14FF1F91
:10559000C014FF1FB914FF1F00A00E405014FF1FBE
:1055A0004C14FF1F38B505460C4629B115F8010B00
:1055B000FFF7A8FF013CF9D138BD00BF10B5064B7D
:1055C0001B7813F0FF0F06D0034CFDF7CDFF2378B7
:1055D00013F0FF0FF9D110BD4C14FF1F064B1B78C1
:1055E000DBB2064A1278D2B293422CBF273202F1C4
:1055F000FF32D01A704700BFC014FF1FB914FF1F3D
:10560000054B1878C0B2054B1B78DBB2984238BF07
:105610004030C01A704700BFB814FF1F4D14FF1F61
:1056200010B4184B1A78D2B2174B1B78DBB29A42DF
:1056300018D001333F2B18D81449C85CC0B2DCB273
:1056400011490C7012490968C9B19A4203D300E0AC
:105650000023D31A01E04032D31A1A2B0FDC0023A7
:105660000B700CE04FF0FF3009E0084B1878C0B227
:105670000021054B1970064B19680029E8D15DF827
:10568000044B7047B814FF1F4D14FF1F7814FF1F01
:105690004814FF1F094B1A78D2B2094B1B78DBB2B2
:1056A0009A4207D00133402B28BF0023054AD05C23
:1056B000C0B270474FF0FF30704700BFB814FF1FF3
:1056C0004D14FF1F7814FF1F054B1A78D2B2054BFB
:1056D0001A70054B1B680BB100221A70704700BF8F
:1056E0004D14FF1FB814FF1F4814FF1F2F4B1B79C9
:1056F00013F0200F23D02D4BDB79D9B22C4B1B7824
:105700000133402B28BF00232A4A1278D2B29A4292
:1057100004D0294AD154D9B2254A1170274A1168B8
:1057200069B1274A1278D2B293422EBFC2EB03036B
:10573000C2F140029B18272BC4BF01230B701B4BE7
:10574000DB78DBB213F0800F1CD0184A127912F00C
:10575000800F17D01B4A1178C9B2194A1278D2B2F9
:10576000914203D16C21114AD1700BE00132282AF9
:1057700028BF00221449885CC0B20C49C871D2B25B
:105780000F490A7013F0400F0ED0084B1B7913F02D
:10579000400F09D000220D4B1A700D4B1B6803B14E
:1057A0001A702C22014BDA70704700BF00A00E4027
:1057B000B814FF1F4D14FF1F7814FF1F4814FF1F5C
:1057C000B914FF1FC014FF1F5014FF1F4C14FF1FFC
:1057D000BC14FF1F164B1A6842F400621A600023C3
:1057E000144A1370144A1370144A1370144A137035
:1057F000144A137040F21331134A11604FF451717F
:1058000004321160C0F34431104A1170C0F34711E3
:10581000517000F01F009072937013742C23D3709A
:1058200040220B4B1A701022A3F54F731A60704779
:10583000288004403415FF1FC914FF1F3C15FF1FAB
:105840003515FF1FC814FF1F20C0044000B00E40D4
:1058500044E400E01B4B9B7803F0EC0300F00302F0
:10586000134310F0040F18BF43F01003154A937050
:1058700000F00F03042B04D11346927942F040024A
:105880009A71104B5A7902F0EF0210F0100F18BF06
:1058900042F010020B4B5A719B7903F0EF0310F0AA
:1058A000200F18BF43F01003064A937110F4807F55
:1058B00007D013465278D2B2197841F020011970FE
:1058C0005A70704700B00E4010B5134B1B6813F4AC
:1058D000006F20D0114B1B7813F0FF0F06D00F4C38
:1058E000FDF742FE237813F0FF0FF9D110220C4B85
:1058F0001A6000230B4AD37040F203120A490A606F
:1059000004310A60094A1370094A1370094B1B6875
:105910000BB101221A7010BD28800440C814FF1F6B
:1059200088E100E000B00E4020C004403415FF1FA5
:10593000C914FF1FC414FF1F10B50446094A137889
:1059400013F0FF0FFBD120460121FCF7BDFD2046DF
:105950000021FCF795FD044B53F83420034B1A60EB
:1059600010BD00BFC814FF1F647000003815FF1F72
:1059700010B40C4609B140F08000104B1B789842DF
:1059800019D00F4A126812F4805F12D003F07F031F
:10599000302B02D100220B4B1A60002C0CBF44228A
:1059A000602200F07F03302B03D142F44072054B9C
:1059B0001A60024B18705DF8044B70477307FF1FA5
:1059C0003480044024C00440704700BF10B50D4B24
:1059D0001B6813F4006F12D03F280CD80A4C0B4BF5
:1059E00053F8303023600121FCF76EFD236800225C
:1059F0001A70012010BD0020034B186010BD00205C
:105A000010BD00BF28800440C414FF1F6470000054
:105A10000D4B1B6813F4006F13D038280AD140F2E5
:105A200002320A4B1A600A4B5A7B42F001025A7347
:105A300001207047064B5A7B02F0FE025A73002089
:105A400070470020704700BF2880044028D00440E1
:105A500000B00E402DE9F04107461F4B1B6813F4C0
:105A6000006F37D01D4B1B680BB101221A701C4B05
:105A70001C780134282C28BF00241A4D1A4EDFF858
:105A80006C8017E0FDF764FE40280FDC337913F0DB
:105A9000800F0FD02B780133282B28BF002318F854
:105AA0000320D2B2F271DBB22B7003E0FF2801DDDC
:105AB000FDF75AFD2B78DBB29C42E3D0FFB20B4BD3
:105AC0001F5501220A4B1A70E4B2054B1C70AC2220
:105AD000054BDA70BDE8F081288004403815FF1FBF
