:1000000000000320D1010000BD390000813900004B
:1000100081390000813900008139000081390000F8
:10002000813900008139000081390000BD390000AC
:10003000BD39000081390000BD3900007139000070
:10004000BD390000BD390000BD390000BD390000D8
:10005000BD390000BD390000BD390000BD390000C8
:10006000BD390000BD390000BD390000BD390000B8
:10007000BD390000BD390000BD390000BD390000A8
:10008000BD390000BD390000BD390000BD39000098
:10009000BD390000BD390000BD390000BD39000088
:1000A000BD390000BD390000BD390000BD39000078
:1000B000BD390000BD390000BD390000D940000045
:1000C000BD3900007D480000BD390000054E00002C
:1000D000BD39000031540000BD390000BD390000B9
:1000E000BD390000BD390000BD390000BD39000038
:1000F000BD390000BD390000BD390000BD39000028
:10010000BD390000BD390000BD390000BD39000017
:10011000BD3900002D2B0000BD390000BD390000A5
:10012000BD390000BD390000BD390000BD390000F7
:10013000BD390000BD390000BD390000BD390000E7
:10014000BD390000BD39000081590000BD390000F3
:10015000BD390000BD390000BD390000BD390000C7
:10016000BD390000BD390000BD390000BD390000B7
:10017000BD390000BD390000BD390000BD390000A7
:10018000BD390000BD390000BD390000BD39000097
:10019000BD390000BD390000E15F0000BD3900003D
:1001A000BD390000BD390000BD390000BD39000077
:1001B000BD390000BD390000BD390000BD39000067
:1001C000BD390000BD390000BD390000BD39000057
:1001D0005A4B4CF2205210B51A804DF628121A8054
:1001E00000BF00BF03F0EEFB554B4FF030621A60CA
:1001F000544A9A60544ADA60544B4FF470021A60C1
:10020000534B544A1A60544B1A6812F4807204D14A
:1002100052490A604FF4A8521A60514B1A781107DC
:1002200003D51A7842F008021A704E4B4E4C4F48D4
:10023000AA221A704E4A00239918A14203D21958D3
:1002400099500433F8E74B4B4B4900228B4202D2C2
:1002500043F8042BFAE74948494900235A581A50F1
:100260000433B3F5E87FF9D1464B474A802103F8C0
:10027000011B9342FBD1454B404A1A60444B8A22F2
:100280001A70A3F5805324225A70A0221A709A790A
:100290009207FCD59A79D406FCD43E4A937903F0B0
:1002A0000C03082B3B4BF9D101221A7142225A71DF
:1002B0009A799006FCD5374A9179364B4906FBD599
:1002C000354A4FF0817111600521516020221A706A
:1002D0009A7902F00C020C2AFAD1304B304A1A609B
:1002E000304B314A1A6000225A60072243F8042C2E
:1002F0002E4AC3F80C2D62B602F09EFA174B1B680B
:10030000DA0705D52A4802F0D9F92A4B2A4A1A6099
:100310002A4B1B785B0609D5264C274A2368934253
:1003200004D1234802F0CAF90023236006F0D6FA6C
:1003300003F04EFB03F02EFAFEE700BF0E2005404F
:1003400030800440823F04000100002B88ED00E073
:10035000002008E00300008510D0034014D00340C3
:1003600002D0074000E00740AC10FF1F24790000D6
:100370006007FF1FAC10FF1FE815FF1F0002FF1FE3
:100380000000000000E400E064E400E008ED00E0AC
:100390000050064000400640448004400480044071
:1003A000C010050014E000E03F190100000020200B
:1003B000D3B804581CE00340A5C3945A00F007408A
:1003C000FFFFFFFFFFFFFFFFFFFFFFFFFFFFFFFF3D
:1003D000FFFFFFFFFFFFFFFFFFFFFFFFFFFFFFFF2D
:1003E000FFFFFFFFFFFFFFFFFFFFFFFFFFFFFFFF1D
:1003F000FFFFFFFFFFFFFFFFFFFFFFFFFFFFFFFF0D
:10040000FFFFFFFFFFFFFFFFFFFFFFFFDEF9FFFF23
:1004100010B5054C237833B9044B13B10448AFF33E
:1004200000800123237010BDAC10FF1F00000000EE
:100430002479000008B5064B1BB106480649AFF306
:1004400000800648036813B1054B03B1984708BD07
:100450000000000024790000B010FF1FAC10FF1F47
:100460000000000008B5194B1B7843F0040218493E
:10047000096811F4805F01D0934212D113490A70C8
:1004800043F005031249096811F4805F01D09A42D4
:1004900011D10E4A137002F035F8062001F016FC57
:1004A00008BD4FF4A2700B4908604FF4007001F5CD
:1004B0007F610860E2E74FF4A271074A11604FF4D0
:1004C000007102F57F621160E3E700BF2D12FF1F8C
:1004D0003C80044014B0044018B0044008B5024801
:1004E00000F00EFA08BD00BFC810FF1F08B5642158
:1004F00002F07EFF08BD00BF10B590B00446642135
:1005000002F076FF00280FDD6846642102F012FF3A
:1005100000280CDD20466946402206F0ABFC003086
:1005200018BF0120404204E04FF0FF3001E04FF0DF
:10053000FF3010B010BD00BF2DE9F04F95B004465C
:1005400090F8029090F803800579467907464FF4B9
:10055000FA7102F0EFFE00284ADB04A8214606F0FB
:100560001DFD04A801F0AEFD10B104A801F0ECFDE2
:100570004FEA084848EA096848EA060848EA0528B0
:100580002046FFF7B3FF04A84146002201F0E8FD32
:1005900070B3684604A901F0E1FC029DDDF800B0EB
:1005A000BBF1000F24D0B8F1000F1ED000264FF48D
:1005B000FA7A3846514602F0BDFE002818DB019B4E
:1005C00005F140029A4204D9AB420BD9C5EB0309AD
:1005D00001E04FF0400905EB0B0039464A4600F0B8
:1005E000B3FD4D4440364645E3D32046FFF77EFF3A
:1005F00015B0BDE8F08F00BF2DE9F04F95B007466C
:1006000080464FF4FA7102F095FE002846DB38462A
:10061000FFF76CFF002841DB04A8394606F0BEFC5A
:1006200004A801F04FFD10B101233B7001E002234B
:100630003B70684604A901F091FC029C019D2B0EC1
:100640007B702B0CBB702B0AFB703D713846FFF79B
:1006500053FF18BB4FF04009AA4604F140039D42E6
:1006600013D2A5421AD92E1B009820444146324687
:1006700000F09AFAB3468EB154463846FFF73CFF75
:1006800060B9BBF1000FE8DC08E000982044414667
:100690004A4600F089FA4034CB46EEE715B0BDE893
:1006A000F08F00BF2DE9F04192B0044600221A4BB2
:1006B0001A804FF0400802A8414601AA01F058FEF6
:1006C00008B301232370019B1A0E62701A0CA270EA
:1006D0001A0AE27023712046FFF70EFFC0B902AF7D
:1006E00025460DF1480E3E460FCE28606960AA608F
:1006F000EB60374610357645F5D12046FFF7FCFE16
:100700000028D8D004E0002323702046FFF7F4FE31
:1007100012B0BDE8F08100BF0811FF1F10B590B006
:100720000446642102F006FE002813DB68462146D9
:1007300006F034FC684601F0C5FC28B1684601F0BB
:1007400003FD0123237001E0002323702046642170
:1007500002F04EFE10B010BD10B5044601F09CF83A
:1007600080F001002070112363702046642102F0A4
:100770003FFE10BD38B504460546012305F8083B89
:10078000284600F0FFFD284601F070FA030E637062
:10079000030CA370030AE370207104F1100001F050
:1007A00093F92046642102F023FE38BD38B5044693
:1007B0002E4D2B685B6828462D4902229847284613
:1007C00002F0D8FF052323700023A371E371237285
:1007D000072262725F22A272F822E2725C22227306
:1007E0000E2262736370A3701022E27023710422E0
:1007F00022744A206074A221A174E374227560758A
:10080000A175E37502212176252161765121A1761A
:10081000E376012121776E2161773621A177E37795
:1008200072B684F83A20E92384F83B30E52384F853
:100830003C30104B70221A700F49104A1160802210
:100840001A701A46137813F0800FFBD00C4B1B68FC
:100850001A0C84F83D201A0A84F83E2084F83F30B0
:1008600062B62046642102F0C3FD38BD3012FF1F7E
:10087000E87300000000024000000741040002404D
:100880000C00024070B505460023437083701022AF
:10089000C2700371FFF730FE70B90024402628466D
:1008A0002146324601F072FE2846FFF725FE18B9B0
:1008B0004034B4F5805FF2D170BD00BFF8B5054695
:1008C0000023437083701022C2700371FFF714FE7F
:1008D000A8B900244FF4FA7640272846314602F0A2
:1008E00029FD00280BDB284621463A4601F06EFE22
:1008F0004034B4F5805FF0D12846FFF7F7FDF8BD2E
:1009000010B5044602F066FD00284AD020460021BA
:1009100002F010FD2046FFF7E9FD002841DB2278B8
:100920006378FD2B2CD0FE2B36D0002B39D1032A37
:1009300017D003D8012A0CD007D90EE0092A17D006
:10094000632A19D0042A2CD10FE02046FFF7F4FDCA
:1009500010BD2046FFF750FE10BD2046FFF7A2FE57
:1009600010BD2046FFF7DAFE10BD00F0F7FD10BD08
:100970002046FFF7FFFE10BD2046FFF7EDFE10BD3D
:1009800012B1012A04D010BD2046FFF797FF10BD19
:100990002046FFF777FF10BD092A02D12046FFF756
:1009A00005FF10BD2DE9F0036E4E6F4D6F4C704882
:1009B000704B714FDFF8E881DFF8E8C16F4A1278B9
:1009C000002A31D072B66D4A127812F0010F06D0AB
:1009D00001686B4A12680A406A490A600260674A05
:1009E000127812F0020F06D02168654A52680A4058
:1009F00064494A602260614A127812F0040F06D0FE
:100A000029685F4A92680A405E498A602A605B4AA8
:100A1000127812F0080F06D03168594AD2680A409D
:100A20005849CA60326062B6DA68B2F1384F09D00C
:100A3000554A1A604FF03842DA604FF078421A6136
:100A4000524A1A60524A1168012281F80021514A23
:100A5000127812F0020F3FD04FF00042DA6270229B
:100A60005A63DA6A002AFCDA9A6B4FF00042DA62C3
:100A700000225A63DA6A002AFCDA9A6B5FFA82F97A
:100A8000012281F880203D4A127802B312F0010F52
:100A900003D03C4A1168404A1160384A127812F07B
:100AA000020F03D0374A5268CCF80020334A12783C
:100AB00012F0040F03D0334A9268C8F800202F4A7E
:100AC000127812F0080F02D02E4AD2683A6019F05C
:100AD000800F3FF473AF3EE04FF00042DA62052230
:100AE0005A63DA6A002AFCDA9A6B4FF00042DA6243
:100AF00000225A63DA6A002AFCDA9A6B5FFA82F9FA
:100B0000012281F880201D4A127802B312F0010FF1
:100B100003D01C4A1168204A1160184A127812F05A
:100B2000020F03D0174A5268CCF80020134A1278FB
:100B300012F0040F03D0134A9268C8F800200F4A3D
:100B4000127812F0080F02D00E4AD2683A6019F0FB
:100B5000010F7FF433AF0022104B1A70BDE8F00391
:100B6000704700BF8CE100E088E100E084E100E034
:100B700080E100E000C002400CE100E03411FF1F02
:100B80001411FF1F2411FF1F01401F0000001F80D0
:100B90000C11FF1F0A11FF1F00E100E00B11FF1FE6
:100BA00008E100E004E100E02DE9F04F85B0804667
:100BB0008A4691460846002106F090F9834B1B783F
:100BC0000393834B1B78002B35D072B6804B1B7878
:100BD00013F0010F07D07F4B19687F4A12680A4053
:100BE0007E490A601A607A4B1B7813F0020F07D017
:100BF0007B4B1968784A52680A4078494A601A6003
:100C0000734B1B7813F0040F07D0764B1968724AA8
:100C100092680A4071498A601A606D4B1B7813F024
:100C2000080F07D0704B19686B4AD2680A406B49AD
:100C3000CA601A6062B66D4BDB68B3F1384F0AD0F8
:100C40006A4B6B4A1A604FF03842DA604FF07842D4
:100C50001A61684A1A60684B1B780293002B00F0F7
:100C60004281664B1B68012283F80021574B1B7899
:100C700013F0020F1BD05D4B4FF00042DA6270227E
:100C80005A631A46D36A002BFCDA584B9A6B4FF022
:100C90000042DA6200225A631A46D36A002BFCDA59
:100CA000524B9B6B13F0800F00F01F8213E24F4BEF
:100CB0004FF00042DA6205225A631A46D36A002BCB
:100CC000FCDA4A4B9A6B4FF00042DA6200225A6318
:100CD0001A46D36A002BFCDA444B9B6B13F0010FCE
:100CE00000F0F98101E2012381F800313F4B4FF020
:100CF0000042DA6206225A631A46D36A002BFCDAF3
:100D00003A4B9B6B012381F880301823013B7FF421
:100D1000FDAF039A12F0040F05D0029B012B0CBF0C
:100D20008522752200E07522012381F800312F4BC6
:100D30004FF00040D8625A631A46D36A002BFCDA9F
:100D40002A4B9B6B012381F88030039A12F0020F2B
:100D50001DD081F80031254B4FF00042DA6270223D
:100D60005A63DA6A002AFCDA204B9B6B1F4A4FF069
:100D700000440020D4625063D36A002BFCDA936BEA
:100D800013F0800FF6D0012381F88030ABE001230F
:100D900081F80031154B4FF00042DA6205225A63A8
:100DA000DA6A002AFCDA114B9B6B104A4FF00044C0
:100DB0000020D4625063D36A002BFCDA936B13F0EB
:100DC000010FF6D1012381F880308CE00A11FF1F5A
:100DD0003411FF1F80E100E01411FF1F2411FF1FD9
:100DE00084E100E088E100E08CE100E000C0024026
:100DF00001401F0000001F800B11FF1F0C11FF1F7F
:100E0000894B1B780BB313F0010F03D0874B1A6883
:100E1000874B1A60844B1B7813F0020F03D0834B6F
:100E20005A68844B1A60804B1B7813F0040F03D070
:100E30007E4B9A68804B1A607B4B1B7813F0080F2F
:100E400003D07A4BDA687D4B1A60FFF7ABFD764B27
:100E50001B78002B35D072B6734B1B7813F0010F43
:100E600007D0774B1968774A12680A406F490A60C1
:100E70001A606D4B1B7813F0020F07D0724B196884
:100E8000704A52680A4069494A601A60664B1B788A
:100E900013F0040F07D06D4B19686A4A92680A4034
:100EA00062498A601A60604B1B7813F0080F07D004
:100EB000674B1968634AD2680A405C49CA601A6085
:100EC00062B6644BDB68B3F1384F0AD0614B624ABB
:100ED0001A604FF03842DA604FF078421A615F4A88
:100EE0001A6000230293039901F00803DBB2009318
:100EF000DFF86CC1012001EA00020192554B4FF06E
:100F00000042009961B108EB0901013981EA080149
:100F100011F07E4F06D028F07E4BCBF1007B02E033
:100F2000CB4600E0CB46DCF8001081F800010199C7
:100F3000D9B1DA6203215963D96A0029FCDA996BC5
:100F4000DA624FEA184141F080515963D96A0029A9
:100F5000FCDA996BDA621FFA88F141F0805159632B
:100F6000D96A0029FCDA996B15E0DA62C8F3074107
:100F700041F0805141F440715963D96A0029FCDA8B
:100F8000996BDA621FFA88F141F080515963D96A8E
:100F90000029FCDA996BBBF1000F18D09AF8001009
:100FA0001C6844F480641C60DA625963BBF1010779
:100FB00007D0574451464D78DC6A002CC0F29F8020
:100FC000FAE75746D96A0029C0F2A680FAE7DCF8AA
:100FD000004084F88000DA44D844B9EB0B0990D182
:100FE000029A002A50D0012384F80031194B4FF0A7
:100FF0000042DA6206225A631A46D36A002BFCDAF0
:10100000144B9B6B012384F880301823013B7FF441
:10101000FDAF039B13F0040F24D0029901290CBFEC
:101020008A227A221FE000BF3411FF1F2411FF1F04
:1010300000E100E004E100E008E100E00CE100E094
:1010400080E100E01411FF1F84E100E088E100E08E
:101050008CE100E000C0024001401F0000001F8042
:101060000C11FF1F7A22012384F800312D4B4FF021
:101070000041D9625A631A46D36A002BFCDA294B25
:101080009B6B012384F88030274B1B78002B46D0C4
:1010900013F0010F03D0254B1A68254B1A60224B21
:1010A0001B7813F0020F03D0204B5A68214B1A60B3
:1010B0001D4B1B7813F0040F03D01C4B9A681E4B7A
:1010C0001A60194B1B7813F0080F28D0174BDA68F9
:1010D0001A4B1A6023E01A4B1B68012283F8802008
:1010E0000023184A13700293FDE6154B196801237B
:1010F00081F88030029A022A7FF6F5AD80E69C6B7B
:101100001E6846F480661E60DA625D6301F8014B7A
:10111000B9427FF450AF55E7996B397057E705B086
:10112000BDE8F08F00C002403411FF1F2411FF1FE3
:1011300000E100E004E100E008E100E00CE100E093
:101140000C11FF1F0B11FF1F2DE9F84F06460D462E
:101150001746DFF820B2DFF820A2DFF82092DFF890
:101160002082774C774B1B780BB1FFF71BFC764B3B
:101170001B78002B39D072B6734B1B7813F0010F1C
:1011800008D0D8F80020714B1B681340704A1360D8
:10119000C8F800306C4B1B7813F0020F08D0D9F858
:1011A00000206A4B5B681340694A5360C9F80030FD
:1011B000654B1B7813F0040F08D0DAF80020634B5E
:1011C0009B681340624A9360CAF800305E4B1B78FC
:1011D00013F0080F08D0DBF800205C4BDB681340ED
:1011E0005B4AD360CBF8003062B6E368B3F1384FA6
:1011F00009D0584B23604FF03843E3604FF07843F9
:101200002361554B2360554B1968012381F8003148
:101210004FF00043E36206236363E36A002BFCDACA
:10122000A36B012381F88030F2B2C2F58072BA421A
:1012300028BF3A46182001387FF4FDAF81F800310D
:10124000474B1B7813F0010F1FD04FF00043E362B0
:1012500002236363E36A002BFCDAA36B4FF00043C5
:10126000E362330C43F080536363E36A002BFCDAE0
:10127000A36B4FF00043E362B3B243F08053636368
:10128000E36A002BFCDAA36B18E04FF00043E36243
:10129000C6F3074343F0805343F400736363E36A88
:1012A000002BFCDAA36B4FF00043E362B3B243F0D0
:1012B00080536363E36A002BFCDAA36B1644BF1A06
:1012C0002A444FF0004115F8013BE1626363E36A91
:1012D000002BFCDAA36B9542F5D1204B1B68012152
:1012E00083F880100421174B1970174B1B780BB330
:1012F00013F0010F03D0164B19681A4B1960124BEB
:101300001B7813F0020F03D0114B5968164B19606C
:101310000D4B1B7813F0040F03D00D4B9968134B42
:101320001960094B1B7813F0080F03D0084BD968DC
:101330000F4B19600FB1154614E7BDE8F88F00BFD9
:1013400000C002400B11FF1F3411FF1F1411FF1FBB
:101350002411FF1F01401F0000001F800C11FF1F00
:101360000A11FF1F00E100E004E100E008E100E0F5
:101370000CE100E08CE100E088E100E084E100E0C5
:1013800080E100E010B50446644B1B780BB1FFF719
:1013900009FB634B1B78002B35D072B6604B1B7872
:1013A00013F0010F07D05F4B19685F4A12680A40BB
:1013B0005E490A601A605A4B1B7813F0020F07D07F
:1013C0005B4B1968584A52680A4058494A601A608B
:1013D000534B1B7813F0040F07D0564B1968524A31
:1013E00092680A4051498A601A604D4B1B7813F08D
:1013F000080F07D0504B19684B4AD2680A404B4936
:10140000CA601A6062B64D4BDB68B3F1384F0AD040
:101410004A4B4B4A1A604FF03842DA604FF078423C
:101420001A61484A1A60484B1968012381F8003153
:10143000424B4FF00042DA629F225A631A46D36A47
:10144000002BFCDA3D4B9A6B4FF00042DA6200222F
:101450005A631A46D36A002BFCDA384B9A6B227017
:101460004FF00042DA6200225A631A46D36A002B18
:10147000FCDA324B9A6B62704FF00042DA62002263
:101480005A631A46D36A002BFCDA2C4B9B6BA37071
:101490002378012B18D1294B4FF00042DA62002249
:1014A0005A631A46D36A002BFCDA244B9A6BE2701B
:1014B0004FF00042DA6200225A631A46D36A002BC8
:1014C000FCDA1E4B9B6B2371012381F88030144B97
:1014D0001B780BB313F0010F03D0144B1A681B4B8E
:1014E0001A600F4B1B7813F0020F03D00F4B5A6892
:1014F000174B1A600A4B1B7813F0040F03D00B4BE9
:101500009A68144B1A60064B1B7813F0080F03D02F
:10151000064BDA68104B1A6010BD00BF0B11FF1F9D
:101520003411FF1F80E100E01411FF1F2411FF1F81
:1015300084E100E088E100E08CE100E000C00240CE
:1015400001401F0000001F800C11FF1F00E100E0A0
:1015500004E100E008E100E00CE100E070B582B0D9
:101560005C4B1B780BB1FFF71DFA6846FFF70AFFCB
:101570009DF80030202B40F0C7809DF80230A3F189
:101580002002D2B2022A00F2BF80212B00F0578144
:10159000514A11788811C4B201F03F011170012C39
:1015A00000F25681222B0CBF082602264B4B1B78DB
:1015B000002B35D072B6494B1B7813F0010F07D0C2
:1015C000474B1968474A12680A4047490A601A603F
:1015D000424B1B7813F0020F07D0444B1968414A65
:1015E00052680A4040494A601A603C4B1B7813F02D
:1015F000040F07D03E4B19683A4A92680A403A49AC
:101600008A601A60354B1B7813F0080F07D0394BEE
:101610001968344AD2680A403349CA601A6062B60F
:10162000354BDB68B3F1384F0AD0334B334A1A607D
:101630004FF03842DA604FF078421A61304A1A604F
:10164000304B1968012381F800312B4B4FF00042D9
:10165000DA6206225A631A46D36A002BFCDA264B5A
:101660009A6B012281F880201825013D7FF4FDAF9F
:1016700081F800214FF00042DA62C4225A631A4610
:10168000D36A002BFCDA1C4B9A6B4FF00042DA62F3
:1016900004FB06F2120242F080525A631A46D36AE1
:1016A000002BFCDA144B9A6B4FF00042DA624FF0D9
:1016B00080525A631A46D36A002BFCDA0E4B9B6B9E
:1016C000012381F88030044B01301A7842EA8012FD
:1016D0001A70B0E00B11FF1F0A11FF1F3411FF1F1A
:1016E00080E100E01411FF1F2411FF1F84E100E0DE
:1016F00088E100E08CE100E000C0024001401F00F2
:1017000000001F800C11FF1F524B1B78002B35D09F
:1017100072B6504B1B7813F0010F07D04E4B19686F
:101720004E4A12680A404E490A601A60494B1B78BB
:1017300013F0020F07D04B4B1968484A52680A4011
:1017400047494A601A60434B1B7813F0040F07D0D7
:10175000454B1968414A92680A4041498A601A60BB
:101760003C4B1B7813F0080F07D0404B19683B4ADD
:10177000D2680A403A49CA601A6062B63C4BDB68DC
:10178000B3F1384F0AD03A4B3A4A1A604FF0384218
:10179000DA604FF078421A61374A1A60374B19689D
:1017A000012381F80031324B4FF00042DA62062209
:1017B0005A631A46D36A002BFCDA2D4B9A6B01222E
:1017C00081F88020182001387FF4FDAF81F80021D6
:1017D0004FF00042DA62C7225A631A46D36A002BDE
:1017E000FCDA234B9B6B012381F88030194B1B786B
:1017F0000BB313F0010F03D0194B1A68204B1A607A
:10180000144B1B7813F0020F03D0154B5A681D4B75
:101810001A60104B1B7813F0040F03D0104B9A681A
:10182000194B1A600B4B1B7813F0080F03D00C4BAD
:10183000DA68164B1A600322154B1A7008E0154B34
:101840001A789011C4B202F03F021A700226ADE677
:1018500002B070BD3411FF1F80E100E01411FF1FC2
:101860002411FF1F84E100E088E100E08CE100E04A
:1018700000C0024001401F0000001F800C11FF1F2C
:1018800000E100E004E100E008E100E00CE100E03C
:101890000B11FF1F0A11FF1F08B57A4B1B78002B95
:1018A00000F0E780784B1B78002B35D072B6764B72
:1018B0001B7813F0010F07D0744B1968744A126833
:1018C0000A4074490A601A606F4B1B7813F0020FCC
:1018D00007D0714B19686E4A52680A406D494A60D8
:1018E0001A60694B1B7813F0040F07D06B4B196813
:1018F000674A92680A4067498A601A60624B1B789F
:1019000013F0080F07D0664B1968614AD2680A4085
:101910006049CA601A6062B6624BDB68B3F1384F47
:101920000AD0604B604A1A604FF03842DA604FF0DC
:1019300078421A615D4A1A605D4B1968012381F88B
:1019400000315C4B1B7813F0020F43D0554B4FF026
:101950000042DA6270225A631A46D36A002BFCDA1C
:10196000504B9A6B4FF00042DA6200225A631A46DB
:10197000D36A002BFCDA4B4B9A6BD2B2012381F86D
:101980008030414B1B780BB313F0010F03D0414B58
:101990001968494B19603C4B1B7813F0020F03D0B8
:1019A0003C4B5968454B1960374B1B7813F0040FBB
:1019B00003D0384B9968424B1960334B1B7813F0B6
:1019C000080F03D0334BD9683E4B196012F0800FDB
:1019D00043D150E0334B4FF00042DA6205225A63A4
:1019E0001A46D36A002BFCDA2E4B9A6B4FF000425A
:1019F000DA6200225A631A46D36A002BFCDA294BBA
:101A00009A6BD2B2012381F880301F4B1B780BB345
:101A100013F0010F03D01F4B1968274B19601A4BA5
:101A20001B7813F0020F03D01A4B5968234B19602F
:101A3000154B1B7813F0040F03D0164B9968204BFD
:101A40001960114B1B7813F0080F03D0114BD968A4
:101A50001C4B196012F0010F0FD10022094B1A70B4
:101A6000144B1B7813F0C00F09D0FFF777FD00204F
:101A700008BD012008BD002008BD002008BD0120D0
:101A800008BD00BF0B11FF1F3411FF1F80E100E0F4
:101A90001411FF1F2411FF1F84E100E088E100E022
:101AA0008CE100E000C0024001401F0000001F80E8
:101AB0000C11FF1F0A11FF1F00E100E004E100E02C
:101AC00008E100E00CE100E070B50446574B1B78DC
:101AD0000BB1FEF767FF564B1B78002B35D072B663
:101AE000534B1B7813F0010F07D0524B1968524A21
:101AF00012680A4051490A601A604D4B1B7813F076
:101B0000020F07D04E4B19684B4A52680A404B49A6
:101B10004A601A60464B1B7813F0040F07D0494BFC
:101B20001968454A92680A4044498A601A60404BE5
:101B30001B7813F0080F07D0434B19683E4AD26850
:101B40000A403E49CA601A6062B6404BDB68B3F196
:101B5000384F0AD03D4B3E4A1A604FF03842DA60A7
:101B60004FF078421A613B4A1A603B4B1D680123D3
:101B700085F80031354B4FF00042DA624B225A6350
:101B80001A46D36A002BFCDA304B9A6B4FF00042B6
:101B9000DA624FF080525A631A46D36A002BFCDA9D
:101BA0002A4B9A6B4FF00042DA624FF080525A6330
:101BB0001A46D36A002BFCDA244B9B6B0021234A84
:101BC0004FF000460846D6625063D36A002BFCDA19
:101BD000936B635401310829F5D1012385F88030D6
:101BE000134B1B780BB313F0010F03D0134B1A6880
:101BF0001A4B1A600E4B1B7813F0020F03D00F4BD9
:101C00005A68174B1A600A4B1B7813F0040F03D065
:101C10000A4B9A68134B1A60054B1B7813F0080F98
:101C200003D0064BDA68104B1A6070BD0B11FF1F12
:101C30003411FF1F80E100E01411FF1F2411FF1F6A
:101C400084E100E088E100E08CE100E000C00240B7
:101C500001401F0000001F800C11FF1F00E100E089
:101C600004E100E008E100E00CE100E08378A3F18A
:101C70001002D2B20F2A02D8012098407047A3F177
:101C80002002D2B2052A03D8063B012098407047B3
:101C900002783AB9427882B9002B0CBF00204FF489
:101CA00080107047FF2A0BD14278FF2A0BD1FF2BFF
:101CB0000CBF00204FF4801070474FF48010704725
:101CC0004FF4801070474FF48010704770B582B0A9
:101CD0000646764D764B53F830302B600124754B19
:101CE0001C7000F0BDFB3046214600F01BFD2B6848
:101CF00083F880406846FFF745FB6846FFF7B6FF6C
:101D0000B0F1807F40F2B6806B4B1B78002B35D052
:101D100072B6694B1B7813F0010F07D0674B196837
:101D2000674A12680A4067490A601A60624B1B786A
:101D300013F0020F07D0644B1968614A52680A40D9
:101D400060494A601A605C4B1B7813F0040F07D09F
:101D50005E4B19685A4A92680A405A498A601A606A
:101D6000554B1B7813F0080F07D0594B1968544A8C
:101D7000D2680A405349CA601A6062B6554BDB68A4
:101D8000B3F1384F0AD0534B534A1A604FF03842E0
:101D9000DA604FF078421A61504A1A609DF80030BC
:101DA000012B14D1414B1968012381F80031494BB3
:101DB0004FF00042DA624A4A5A631A46D36A002B4D
:101DC000FCDA444B9B6B012381F8803027E0374BD2
:101DD0001968012381F800313E4B4FF00042DA626E
:101DE00006225A631A46D36A002BFCDA394B9A6BE7
:101DF000012281F88020182001387FF4FDAF81F89E
:101E000000214FF00042DA62B7225A631A46D36AC1
:101E1000002BFCDA2F4B9B6B012381F88030264B83
:101E20001B780BB313F0010F03D0264B1A682D4B10
:101E30001A60214B1B7813F0020F03D0214B5A6814
:101E4000294B1A601C4B1B7813F0040F03D01D4B59
:101E50009A68264B1A60184B1B7813F0080F03D0B2
:101E6000184BDA68224B1A609DF80030202B0FD0F7
:101E7000012300E000239DF80020012A05D19DF8F0
:101E800004204AB943F0140308E0202A06D100E0F8
:101E9000092343F0020301E043F00403154A1370E1
:101EA0006846FFF76FFA012002B070BD0C11FF1FEA
:101EB000FC7300001011FF1F3411FF1F80E100E0D0
:101EC0001411FF1F2411FF1F84E100E088E100E0EE
:101ED0008CE100E000C0024001401F0000001F80B4
:101EE0008017001000E100E004E100E008E100E0FC
:101EF0000CE100E00A11FF1F00B583B00020694625
:101F00000822FEF751FE009B124A934201D101982C
:101F10001DE0B3F1FF3F17D10E4B00930E4B019321
:101F2000002069460822FFF70FF9FFF7B5FC0028EB
:101F3000FBD0002069460822FEF736FE009B054ACA
:101F4000934203D1019802E0002000E0002003B09A
:101F50005DF804FB4C5596FA5802F6182DE9F04F3F
:101F600093B08346029100230360FFF7C5FF00286A
:101F700000F09D8083B203930298037853B1014629
:101F80004D4A4E485A4000FB02F211F8013F002B27
:101F9000F8D100E0484A5108494BA3FB01039B0BD1
:101FA000C3EBC333A2EB430301331FFA83F8039956
:101FB00000297CD001EB4102049200230193CDF86B
:101FC00014B003980199461A072E48D8081D4000FE
:101FD0000AA97200FEF7E8FD002E48D136E00AABF0
:101FE00033F8143043452BD100230993284607A921
:101FF0000A22FEF7D9FD099B03F10209049A9144D4
:102000004FEA8909029F4FF0100B48460EA95A4625
:10201000FEF7CAFD09F110097B1C3A789DF83810CB
:1020200091420FD172B30EA9103713F8012B11F89A
:10203000010F824206D142B3BB42F6D11F46E4E70C
:10204000534532D001340A35B442C8D3019B3344DE
:10205000019303989842B4D8DDF814B027E00199B1
:10206000081D40000AA91022FEF79EFD0826039ACB
:10207000151D019800EB80031D446D0000244FF6F0
:10208000FF7AACE7DDF814B001E0DDF814B0079B8F
:10209000CBF80030089BCBF804300023CBF8083095
:1020A00001990C44ABF80C4001E0DDF814B058463F
:1020B00013B0BDE8F08F00BFC59D1C8193010001E6
:1020C0000300018000B585B001466846FFF746FF72
:1020D0000098003018BF012005B05DF804FB00BF78
:1020E00030B583B0054603683BB3808904304000B7
:1020F0000DF106010222FEF757FDBDF80630DB4365
:10210000ADF80630A889043040000DF10601022226
:10211000FFF71AF8FFF7C0FB04460028FAD0A88999
:10212000043040000DF106010222FEF73DFDBDF82E
:10213000063023B92B606B6002E0002400E000242D
:10214000204603B030BD00BF00B585B001466846EB
:10215000FFF704FF6846FFF7C3FF05B05DF804FB17
:102160002DE9F04F8BB005460C469246FFF7AAFFCB
:10217000002840F0DE80FFF7BFFE8146002800F017
:10218000DA8086B24FF0000B4FF6FF780BF10803B0
:102190009E4280F0D680CBEB06070BF10400400096
:1021A00006A97A00FEF700FDA7B1BDF81830434537
:1021B0000BD104E032F8021F414508D100E00023B2
:1021C00003EB0B07BE4209D8B7E006AA0023013390
:1021D000BB42EFD3BB445E45D8D8BBE006EB460319
:1021E0009B00009303F1080837B94FEA19494FEAF9
:1021F000094908EB993937E00020059006F10043C2
:10220000013B07EB87029818400003A90A22FEF75A
:10221000CBFC039B049A02EB0309059B08EB8303A9
:1022200001939B464FF00008584606A91022FEF77E
:10223000BBFC08F101039DF8182062B903E00133EB
:1022400012F8011F51B90199CA1C1344DFF81C810F
:1022500003EA080808E006AA08F110084345EED191
:102260000BF1100B9846DFE7BAF1000F0DD00AF121
:10227000FF339944B9FBFAF90AFB09F9013C5444CC
:10228000B4FBFAF40AFB04F403E009F1FF0929F0B6
:10229000FF09284604F0E0FE834606A8FFF772F81F
:1022A00009EB040A06A8FFF7E1FC824547D840463F
:1022B00029460BF10102FEF747FFCDF80C9004947C
:1022C000009AC2EB0803083B9B080593301D07EBFF
:1022D00087031844400003A90A22FEF735FFFFF7E1
:1022E000DBFA0028FBD02B784BB11D4A1D495A4020
:1022F00001FB02F215F8013F002BF8D100E0184A6B
:102300005108194BA3FB01039B0BC3EBC333A2EB97
:10231000430301339BB20AA941F81C3D381D40001C
:102320000222FEF711FFFFF7B7FA03460028FAD0A2
:1023300011E000230FE000230DE000230BE0002359
:1023400009E00BF10400400006A91022FEF72CFC66
:1023500008272AE7002318460BB0BDE8F08F00BF1E
:10236000C59D1C819301000103000180FCFF030057
:102370002DE9F04788B080460F469246002303704F
:10238000FFF7BAFD00285BD086B2344B1C88A6420A
:1023900058D9251D6D004FF0020928460DF10601A0
:1023A0004A46FEF701FCBDF8063023B90134023578
:1023B000A642F2D848E0621C284B1A8000230393FF
:1023C000B01D04EB84042044400002A90622FEF75D
:1023D000EBFB029BB3F1FF3F38D0CAF80030039B00
:1023E00003F1020906EB4606B1444FEA890917B327
:1023F000102F34BF3E461026484604A93246FEF749
:10240000D3FB8EB108F101039DF8102088F800205D
:10241000F2B104ADB04404E015F8014F03F8014BEC
:10242000C4B14345F8D100E04346B144BF1B01D0DD
:102430009846DDE79846002308F8013C01200AE0B1
:10244000002008E0002006E0002004E0002002E078
:10245000012000E0012008B0BDE8F0870811FF1F4F
:10246000184B1A6842F480521A60174B174A1A60C8
:10247000174ADA6002F180421A61164A1A60164B56
:102480001B7813F0010F07BF4FF41072134B4FF47A
:102490000072134B1A60104B1B7813F0020F4FF4AD
:1024A00000720CBF0F4B104B1A600B4B1B7813F0D4
:1024B000040F07BF4FF410720C4B4FF400720C4B1B
:1024C0001A6070473C80044000C0024001401F0079
:1024D0000110003800001F802D12FF1F18B00440AB
:1024E00008C004401CB004400CC0044014B00440B8
:1024F00004C00440024A137813F0010FFBD0704768
:102500000100024010B584B01B4B6C461868596836
:102510009A68DB680FC4194B1B7813F0020F23D0A5
:10252000174B1B7813F070031CBF154A13708022E1
:10253000144B1A700022033B1A70122207331A70D0
:102540000522013B1A7072B66B4643F001030C4C36
:102550002046984762B6237813F0700304D02370A6
:1025600008E0013B02D105E0074B04490A7812F06C
:10257000010FF6D004B010BDEC7300000100024062
:102580000000024007000240410D030070B5044600
:102590000D468E180C4B1B7813F0010F01D1FFF77D
:1025A000B1FFB6F5805F34BF32464FF4805295429A
:1025B00009D205F1A05102F1A05211F8013B04F833
:1025C000013B9142F9D170BD010002402DE9F0417B
:1025D00006460F4615460C46B1F5805F67D2354B6F
:1025E0001B7813F0010F01D1FFF78CFFB5F5805F69
:1025F00028BF4FF480557B19B3F5805F28BFC7F51E
:102600008055002D53D02C4F14F003031ED1032D01
:102610001ED933787178B278120442EA01221A4343
:1026200006F10408F37842EA036204F1A053196842
:10263000914207D0397811F0700118BF39701A60D3
:10264000FFF758FF0434043D46462EE0022B18D114
:10265000012D16D906F102087278337843EA022276
:1026600004F1A0531988914207D0397811F0700114
:1026700018BF39701A80FFF73DFF0234023D46460D
:1026800013E006F10108327804F1A0531978C9B2B9
:10269000914207D0397811F0700118BF39701A7063
:1026A000FFF728FF0134013D4646002DACD1BDE8BF
:1026B000F08100BF0100024000000240044B0022F4
:1026C0001A6004490A60044A106010221A607047B8
:1026D00014D0034004D0034000D003403F281ED84C
:1026E0000F4B53F8303093F8802212F0FF0F08D0D0
:1026F00019B1012283F880207047012283F800215C
:102700007047074B03EBC000436821B11A6842F0E1
:1027100003021A6070471A6822F002021A607047BA
:10272000FC7300003F284AD8254B03EBC0035B68CD
:10273000012911D004291DD0214A52F8302000204F
:1027400082F8800200292FD0022931D003291FD01E
:1027500040F203121A607047194A52F830200121E2
:1027600082F880124FF4A2721A601A6822F02002D6
:102770001A607047124A52F83020012182F8801204
:102780004FF4A2721A601A6842F020021A60704771
:102790004FF480721A601A6842F002021A601A68D6
:1027A00022F001021A6070474FF480721A6070477D
:1027B0004FF480721A601A6842F003021A60704780
:1027C000FC73000072B60D4B1B680D4A12680D4970
:1027D000096862B611F0806F02D0322B88BF0132D7
:1027E000C3F58C3303F23F130749A1FB03031B0915
:1027F0004FF47A7000FB0230704700BF18E000E031
:102800003811FF1F04ED00E0398EE33838B5054676
:10281000FFF7D8FF044625B938BD013D0AD004F5BD
:102820007A74FFF7CFFF001BB0F57A7FF5D200F086
:10283000E5FFF6E738BD00BF70B5404B4FF00062D2
:102840001A604FF080521A604FF000521A604FF039
:1028500080421A604FF000421A600022384B1A6022
:1028600048F6FF7004331860282336490B6008319E
:102870000B6008310B6008310B6008310B600831C8
:102880000B6008310B6008310B602F4D2B602F4C13
:10289000236001F5002101F6D8710B6008310B604F
:1028A00008310B6008310B6008310B6008310B6098
:1028B0000921274E316006F5805604363260043611
:1028C00030600436336008363360143E316006F5FC
:1028D000FE26043632600436306004363360083633
:1028E0003360143E316006F580560436326004369B
:1028F00030602B602360174801601749086840F476
:10290000007008602839086840F00070086001F520
:1029100001210A6047F6FF71104A1160043213600A
:102920000832136008220E4B1A6000F097FF4FF434
:10293000C870FFF76BFF00F069FC70BD04E100E0B8
:10294000048003400C8003400C900B4014900B401B
:102950000080034000900B402C80044008900C4005
:1029600000900C4030B40E4B1B7843F002020D4C2B
:1029700004EBC20460600C48007800280CBF882477
:10298000C82444EA0141074D45F8321080F00100A7
:10299000054A107083F00103014A137030BC704780
:1029A000A411FF1F0000FF1F1D12FF1F10B4431EC4
:1029B000032B11D872B60A4A52F8230050B142686C
:1029C000074941F82320074A32F813400188611A69
:1029D00022F8131062B600E000205DF8044B704747
:1029E0009411FF1FDC15FF1F013803280DD872B6A4
:1029F000074B53F820302BB1002001305B68002BCF
:102A0000FBD100E0002062B670470020704700BF95
:102A1000E811FF1F38B572B601231B491B4C5A1829
:102A200012F8012C12F0080F24D09A0054F83250FA
:102A30006DB9164B03EBC20108304860144943F8E6
:102A40003210144B1A78013A1A7062B638BD42F04F
:102A5000010254F832506DB90C4B03EBC20108303F
:102A600048600D4943F832100A4B1A78013A1A703F
:102A700062B638BD0133052BD1D162B60022054BB9
:102A80001A7000F02DFC38BD207600000000FF1FFA
:102A9000880040001212FF1FC800400010B4431EFF
:102AA000032B37D8400140F010001C4A104472B686
:102AB0001B4AD25C032A09D8DFE802F019021B0581
:102AC0000830022216E00830042213E0154A52F8BA
:102AD00023201AB9134A42F8231003E0124A52F88D
:102AE00023205160104A42F8231062B612E00322FC
:102AF00000E005220A4CE25401F10803436000F0B3
:102B00000803002B0CBF8823C8230A8843EA02432A
:102B1000036062B65DF8044B704700BF0000FF1F02
:102B20005011FF1FE811FF1FF811FF1F2DE9F84F8B
:102B3000A84CDFF8F092DFF8F0A2DFF8F0B22578C9
:102B4000EDB215F0040F1DD0A34B1B7813F0FF0F4F
:102B500016D0A24B1B7803F0FF022BB1531EDBB241
:102B60009E4A137003B900BE9D4B1B7803F0FF0211
:102B700033B1531EDBB29A4A13700BB900F0DCFD7F
:102B80000423237015F0080F00F0D48299F8003068
:102B9000DBB21D0940F01582924D9E0805EBC6037D
:102BA0005A6855F83630C3F38303013B0C2B00F20F
:102BB0000482DFE813F0BB01BB0102020202020241
:102BC000020202020202DC010202020202020D0003
:102BD000854913680B6052684A60844A45F836207C
:102BE000002283490A607F490A618A610121814A82
:102BF00011709BB240F28162934218D8B3F5D06F46
:102C000029D2B3F5817F00F0178106D8802B00F020
:102C1000C380822B00F0C68056E140F2023293421C
:102C200000F01F81B3F5A06F00F052814CE1B3F5C5
:102C3000106F16D004D8B3F5086F00F0A78043E1F9
:102C400040F62112934200F06D8140F6212293421A
:102C500000F03E8138E1684B5D68002D40F0168140
:102C60002EE1614B9A785C4B1A705E4D05F180063F
:102C70002B6A13F0800F03D0686A083800F030FB2D
:102C80000835B542F4D1DFF8A881002637465B4A03
:102C9000B05828B1456800F023FB0DB12846F9E78C
:102CA000002356497350564AB350564BF05828B13A
:102CB000456800F015FB0DB12846F9E7002351499E
:102CC0007350514AB35028F8023F504BFB5C023B13
:102CD000032B0AD8DFE803F00206020600224B4B62
:102CE000DA5502E00122494BDA5501370436102E3D
:102CF000CDD10022464B1A700125464FDFF83481B2
:102D0000384E05EB080313F8013C07F8043B13F0B9
:102D1000080F2DD000F0C4FA48B1A90006EB451207
:102D200000F1080353603C4A46F8312007E0AB004D
:102D3000002246F83320364B1A7801321A7000F020
:102D4000AFFA58B1AB0043F0010306EBC30100F149
:102D500008024A60254A46F8332009E0AB0043F0F8
:102D60000103002246F83320294B1A7801321A70E9
:102D7000AA0042F00201002346F8313042F003027B
:102D800046F8323001355F45BBD114E2124B1B7857
:102D9000224D2B700127A0E0204D00232B706B707B
:102DA00002279AE0104B9B88042B03D90F221C4B5F
:102DB0001A70B7E0194A002111705170184A12F8C0
:102DC000233013F0020F00F08680144D01232B7086
:102DD000022782E0802007401C12FF1FA511FF1F61
:102DE0002C12FF1F0000FF1F0812FF1FC800400029
:102DF0003C11FF1F1D12FF1F247600009411FF1FBE
:102E00004011FF1FE811FF1FF811FF1F5011FF1F96
:102E10001212FF1FC4200740880040001412FF1F39
:102E2000C02007409020074094200740D42007404E
:102E3000DA15FF1F20760000964B9B8803F07F0376
:102E4000042B02DC934A52881AB10F22924B1A705B
:102E500068E0914A12F8231021F0020102F82310D1
:102E6000A9E18C4B9B8803F07F03042B02DC894A89
:102E700052881AB10F22884B1A7053E0864A12F812
:102E8000231041F0020102F8231094E1814B5E8887
:102E90009F88824BA3F10C02114633F80C0CB04210
:102EA00009D133F80A0CB84205D1360A032E0CBFFB
:102EB0002F78178911E00D690C330C32002DEBD1FE
:102EC0000F22754B1A702DE00F22734B1A7029E0F8
:102ED00000273D4601E00227714D6E4BDB889F4283
:102EE00028BF1F46402F34BF3E4640262846314665
:102EF000FFF738FD3544BF1B03D13F2E00F2608140
:102F000010E0402F34BF3E46402628463146FFF7AA
:102F100029FD3544BF1B01D13F2E03D9614B1D60F4
:102F2000614B1F8001238AF8003046E0594B196835
:102F30005E4B994217D1574B59685D4B994212D15C
:102F40001378A92B0FD15378452B0CD19378C22B32
:102F500009D1D3786B2B06D10522564B1A7000206D
:102F60000146FFF7FFFC544B45F8363025E04D4B4A
:102F70001E68BEB14C4FB7F80080B8F1400F34BFA7
:102F80004546402530462946FFF7ECFCC5EB0803D3
:102F90009BB23B800BB9402D01D1354400E00025A8
:102FA000404B1D603B4B1B88B3F5A06F05D1394BDF
:102FB00000225A709B7841490B7001238AF8003037
:102FC000B5E03F4E9F0806EBC708D8F80420A2F1F1
:102FD0000800013DEDB213F0080F47D000F080F972
:102FE000384B53F825304BB35A68364941F8252001
:102FF00003F10802C8F80420334A525D032A12D8AC
:10300000DFE802F002060A0E03212F4A51550AE0BA
:1030100002212D4A515506E005212B4A515502E067
:103020000421294A515518F0080F0CBF8822C822E4
:103030001B8842EA034346F8373078E0224B5B5D59
:10304000032B0BD8DFE803F07373020600221E4B3C
:103050005A556CE001221C4B5A5568E018F0080FD5
:103060000CBF02220322184B5A5560E056F8373045
:103070001B0C22F8083C002B51D0002322F8063C00
:1030800042F8043C114B53F825300BBB0F4B43F86F
:10309000250021E00812FF1FC02007403076000005
:1030A0001412FF1F3C11FF1F1012FF1F2109000304
:1030B00001000400A511FF1FC80040009820074030
:1030C0000000FF1FE811FF1F5011FF1F9411FF1F89
:1030D0003F4B53F8253058603D4B43F825003D4B9E
:1030E00033F8151032F8082C0A4423F8152000F0A4
:1030F000D7F860B100F10803C8F8043018F0080FE1
:10310000354B364A08BF134646F837300FE00023E8
:1031100046F83730324B1A7801321A7007E018F04F
:10312000080F2D4B2D4A08BF134646F837300823A9
:10313000237004E515F0010F22D02A4902230B70F9
:103140000022294B1A70294B24481860284C5C60D7
:1031500098602848D8601A619A610D20264B187033
:10316000FF23264803700838037018300270244A81
:1031700013709F22234B1A7001230B70BDE8F88F48
:1031800015F0800F05D00D221B4B1A708022403B9A
:103190001A7015F0020F06D0184B1A78D2B21A70B6
:1031A0000222083B1A7015F0100F0ED01022164B99
:1031B0001A70BDE8F88F00200146FFF7D3FBB1E697
:1031C00028460021FFF7CEFBACE6BDE8F88F00BF34
:1031D0004011FF1FDC15FF1FC800400088004000A1
:1031E0001212FF1F94200740A411FF1F0000FF1FB1
:1031F0005411FF1FA811FF1FC0200740882007405F
:103200008C200740842007408020074008B502F04A
:1032100061FF00231C491A465A50C81842600833FF
:10322000882BF9D1194B1A6842F480221A60184B86
:103230001A6842F040721A60134BC3F30721154A13
:103240001170C3F30741143211701B0E0432137056
:10325000FF23343A137008321370783A1370012345
:103260008432137000216C3211707C3A137070221A
:10327000094B1A704FF40012A3F231331A60102276
:10328000064B1A7008BD00BF0000FF1F34800440C9
:1032900000D800409C20074035E400E008210740AA
:1032A00072B60D4B1A68B2FA82F30B2B02D962B6D2
:1032B000002070474FF00041D94022EA0102064940
:1032C0000A6062B6054903EBC303DB00C81800229D
:1032D000CA504260704700BF6007FF1F0004FF1F15
:1032E00008B50F4BC31A0F4AA2FB03131B090B2B84
:1032F00014D80D4A12783AB10C4A127812F0FF0F26
:1033000002D0FFF787FB08BD72B6094A4FF00041B3
:1033100021FA03F311681943116062B608BD00BFBA
:103320000004FF1F398EE3381212FF1F1C12FF1F0B
:103330006007FF1F2DE9F04383B081460C46234B05
:103340001B680093009E224B1B7813F0FF0F31D0B7
:1033500004251E4FDFF878802846FFF727FB034639
:1033600070B93B680193019B9B1BA34225D834B3E2
:1033700000F044FA98F8003013F0FF0FECD120E091
:1033800000F1080200F14801166855689468D06899
:10339000C9F80060C9F80450C9F80840C9F80C0021
:1033A000103209F110098A42EED11846FFF798FF52
:1033B000402008E04FF0FF3005E0002003E000204F
:1033C00001E04FF0FF3003B0BDE8F0833811FF1F7C
:1033D0001C12FF1F044B1B7813F0FF0F1ABF034B87
:1033E000D8880020704700BF1C12FF1FDC15FF1F8C
:1033F0002DE9F04383B081460E46234B1B680093B2
:10340000009D224B1B7813F0FF0F32D003241E4F78
:10341000DFF878802046FFF7E7FA032803D8FFF7A4
:103420003FFF014668B93B680193019B5B1BB342B8
:1034300022D800F0E3F998F8003013F0FF0FE9D13B
:103440001CE04B4600F1080209F140091E685D6866
:103450009C68D868166055609460D0601033103254
:103460004B45F3D140240C800320FFF717FB204687
:1034700006E04FF0FF3003E0002001E04FF0FF30A6
:1034800003B0BDE8F08300BF3811FF1F1C12FF1FFF
:10349000F8B5194B1B7813F0FF0F24D0174C0227F7
:1034A000154E206820B93846FFF780FA2060E8B151
:1034B0004388C218157A6DB101330288934206D34E
:1034C000FFF70EFF00220D4B1A602846F8BD43801F
:1034D0002846F8BDFFF704FF00232360337813F07C
:1034E000FF0FDED105E04FF0FF30F8BD4FF0FF30A9
:1034F000F8BD4FF0FF30F8BD1C12FF1F2812FF1F50
:1035000070B5134B1B7813F0FF0F16D0114C022629
:103510000F4D206820B93046FFF748FA206078B197
:10352000438803441B7A73B9FFF7DAFE0023236054
:103530002B7813F0FF0FECD107E04FF0FF3070BD98
:103540004FF0FF3070BD184670BD4FF0FF3070BDBA
:103550001C12FF1F2812FF1F38B5194B1B6853B9E7
:10356000184B1B7813F0FF0F24D00220FFF71EFA30
:10357000134B186000B3124B1868058843889D42AE
:1035800012DDC218127A7AB103F108020244ED1A70
:10359000012303E012F8011F013319B11C46AB42AD
:1035A000F8D100E023464BB9FFF79AFE0020044B08
:1035B000186038BD002038BD002038BD204638BD19
:1035C0002812FF1F1C12FF1F2DE9F047044601229D
:1035D0003B4B1A700F4600296DD0DFF8F090DFF8F2
:1035E000F0A01E46DFF8DC80D9F80030A3BB9AF8C3
:1035F000003013F0FF0F06D10022314B1A704FF04C
:10360000FF30BDE8F08743F601450120FFF7ECF9F4
:10361000052806D801233370FFF742FEC9F80000E1
:10362000D0B9013D02D098F800304BB10122254BB2
:103630001A700022224B1A704FF0FF30BDE8F0875D
:103640000023337000F0DAF8012333709AF8003069
:1036500013F0FF0FD9D1CFE7002388F80030D9F855
:1036600000104A88C2F14005AF4238BF3D4602F122
:1036700008030B442A444A807F1B3DB1254414F8BB
:10368000012B03F8012BAC42F9D100E025464B8811
:103690003F2B03D805220C4B1A7009E040230B8006
:1036A0000024094B1C700120FFF7F8F9C9F800400D
:1036B0000FB12C4698E70020014B1870BDE8F08749
:1036C0001E12FF1F2412FF1F2C12FF1F2012FF1FAC
:1036D0001C12FF1F00B583B002AB03F8010D1846A2
:1036E0000121FFF771FF03B05DF804FB08B50F4B34
:1036F0001B7813F0FF0F17D00D4B1968A1B14A8842
:1037000092B100200B4B187013463F2A04DCCA18F4
:1037100010720133402BFAD140230B800120FFF7B8
:10372000BDF90022024B1A6008BD00BF1C12FF1F2A
:103730002012FF1F2C12FF1F08B50C4B1B7813F033
:10374000FF0F12D10A4B19684B883F2B05DC002074
:10375000CA1810720133402BFAD140230B8001208C
:10376000FFF79CF90022024B1A6008BD1E12FF1FD2
:103770002012FF1F00B583B0054B1B88ADF8043045
:1037800003685B6801A90222984703B05DF804FB57
:10379000FC75000008B5FCF765FEFCF79FFE00F025
:1037A0002DF8FAE708B5FFF7D7FE08BD08B5FFF713
:1037B0006FFE08BD08B5FFF7A3FE08BD08B5FFF70B
:1037C00095FF08BD08B50846FFF784FF08BD00BF98
:1037D00008B508461146FFF7F7FE08BD704700BF61
:1037E000044B00221A714FF47A7199601A73024ADD
:1037F0001A6070473012FF1F0876000008B5164B9C
:103800001B7843BB0122144B1A70FFF7A5FE08B1C9
:10381000FFF7E4FF00F0D6FB08B102F031FD00F045
:10382000A3FF08B102F0CEFD01F076FA08B102F074
:103830006BFE01F087FD08B102F008FF02F02AF8E4
:1038400008B102F0A5FF02F055FB08B103F036F80D
:103850000022014B1A7008BD4012FF1F60223A4B34
:103860001A70E12201331A70384B1B78082B10D1E3
:10387000012203F1804303F56C331A6013233449AA
:103880000B6001F5FF2101F2FC710A60314A1360FF
:103890001FE00A2B0DD119222F4B1A6013232C493C
:1038A0000B6001F5FF2101F2FC710A60294A1360E7
:1038B0000FE00C2B0CBF15223D22274B1A60122360
:1038C00023490B6001F5FF2101F2FC710A60214AD6
:1038D0001360224B1B7833B10123214A136002F598
:1038E0000022136005E000231D4A136002F5002248
:1038F00013601C4B1B78012B06D880231A4A1360D7
:1039000002F5002213601AE0042B06D88423164A1D
:10391000136002F50022136011E0082B06D88523FE
:10392000114A136002F50022136008E0102B94BFC7
:10393000862387230C4A136002F5002213600122BC
:103940000A4B1A70704700BF004007406407FF1F12
:103950000CB003400CB00B4008B003404212FF1FF4
:1039600020B003406507FF1F24B003404112FF1F32
:10397000024B1A6801321A60704700BF3811FF1FEE
:1039800008B50D4C236813F4802F01D0FFF7CEF853
:10399000236813F4806F01D000F09EFB236813F4BA
:1039A000006F01D000F06AFF236813F4805FE9D054
:1039B00001F028FAE6E700BF3480044008B5FFF7BD
:1039C000DFFF00BF1022014B1A8070470020054026
:1039D000704700BF024A13681844106018467047C9
:1039E0006807FF1FEFF31383ABB9EFF31083ABB995
:1039F000EFF3058323B10F2B05D9094A985C03E047
:103A00004FF4807000E00020EFF311833BB183425C
:103A100038BF184670474FF0FF307047002070479E
:103A2000F0E300E030B40023B0FBF2F402FB140436
:103A30001D46092C94BF30343734E4B2CC54B0FB6B
:103A4000F2F008B10133EFE70D4400226A709342AF
:103A500007DD885CCC5C8C54C8540132013B9A422F
:103A6000F7DB084630BC70472B4B1A6842F4806283
:103A70001A600023294A1370294A1370294A1370C7
:103A8000294A1370294A1370294B1B78152B07D02C
:103A90001B2B0AD06BB940F21332264B1A6008E098
:103AA00040F21332244B1A6003E040F21332234BEE
:103AB0001A60234B1B78052B08D01A2B0BD0012B37
:103AC0000DD14FF451721F4B1A6008E04FF4517240
:103AD0001D4B1A6003E04FF451721C4B1A60C0F387
:103AE00044321B4B1A70C0F347125A7000F01F008B
:103AF000987204229A700221D9745A7588221A7415
:103B00003C22DA704022134B1A704FF00042A3F2AD
:103B10001F331A60704700BF34800440D012FF1F6B
:103B20004912FF1FD812FF1FD112FF1F4812FF1F9B
:103B30008C12FF1F40A0044018C004403C90044079
:103B40006C07FF1F44A004401CC004403890044090
:103B500000A006401FE400E01B4B9B7803F0EC0341
:103B600000F00302134310F0040F18BF43F01003DA
:103B7000154A937000F00F03042B04D11346927979
:103B800042F040029A71104B5A7902F0EF0210F0A5
:103B9000100F18BF42F010020B4B5A719B7903F0C3
:103BA000EF0310F0200F18BF43F01003064A937183
:103BB00010F4807F07D013465278D2B2197841F0C2
:103BC000200119705A70704700A0064010B5144BC0
:103BD0001B6813F4806F21D0124B1B7813F0FF0F7A
:103BE00006D0104CFFF70AFE237813F0FF0FF9D12F
:103BF0004FF000420C4B1A6000230C4AD37040F285
:103C000003120B490A6004310A600A4A13700A4A17
:103C100013700A4B1B680BB101221A7010BD00BF54
:103C2000348004404812FF1F80E100E000A00640FD
:103C300040A00440D012FF1F4912FF1F4412FF1F73
:103C400010B50446094A137813F0FF0FFBD1204644
:103C50000121FEF767FD20460021FEF73FFD044BE2
:103C600053F83420034B1A6010BD00BF4812FF1FE9
:103C7000FC730000D412FF1F10B40C4609B140F0D1
:103C800080001D4B1B78984233D01C4A126812F4F6
:103C9000806F2CD003F07F03052B07D01A2B09D09F
:103CA000012B0AD10022164B1A6006E00022154BA8
:103CB0001A6002E00022144B1A60002C0CBF442250
:103CC000602200F07F03052B08D01A2B0BD0012BAC
:103CD0000DD142F440720A4B1A6008E042F440727F
:103CE000084B1A6003E042F44072074B1A60024B23
:103CF00018705DF8044B70476C07FF1F3480044058
:103D000044A004401CC0044038900440174B1B786A
:103D1000984229D0164A126812F4806F22D0152BCF
:103D200006D01B2B08D053B90022124B1A6006E0B4
:103D30000022114B1A6002E00022104B1A60152875
:103D400007D01B280AD068B940F21332094B1A6019
:103D500008E040F21332084B1A6003E040F21332DD
:103D6000064B1A60014B1870704700BF8C12FF1F82
:103D70003480044040A0044018C004403C900440FB
:103D800010B50D4B1B6813F4806F12D03F280CD870
:103D90000A4C0B4B53F8303023600121FEF7C2FC74
:103DA000236800221A70012010BD0020034B186008
:103DB00010BD002010BD00BF348004404412FF1F1E
:103DC000FC730000114B1B6813F4806F1BD012288A
:103DD00004D140F202320E4B1A600DE0142804D1D7
:103DE00040F202320B4B1A6006E00B4B5A7B02F09A
:103DF000FE025A7300207047074B5A7B42F00102C3
:103E00005A73012070470020704700BF348004407F
:103E10000CA0044014C0044000A006402DE9F0416D
:103E200007461F4B1B6813F4806F37D01D4B1B6870
:103E30000BB101221A701C4B1C780134402C28BF96
:103E400000241A4D1A4EDFF86C8017E0FFF7CAFD08
:103E500040280FDC337913F0800F0FD02B7801331B
:103E6000402B28BF002318F80320D2B2F271DBB236
:103E70002B7003E0FF2801DDFFF7C0FC2B78DBB2DD
:103E80009C42E3D0FFB20B4B1F5501220A4B1A7024
:103E9000E4B2054B1C70BC22054BDA70BDE8F08122
:103EA00034800440D412FF1FD812FF1FD112FF1F0D
:103EB00000A006404C12FF1F4812FF1F2DE9F84FCB
:103EC0000746284B1B6813F4806F49D0264B1B68AC
:103ED0000BB101221A7007EB010B5F453DD2DFF8F1
:103EE0009890224EDFF88C80DFF890A099F800407F
:103EF0000134402C28BF00243578EDB2A54220D1F2
:103F0000BC2388F80330FFF76DFD402811DC98F8DA
:103F1000043013F0800F10D033780133402B28BFCA
:103F200000231AF80320D2B288F80720DBB23370DE
:103F300003E0FF2801DDFFF761FC3378DBB29D422F
:103F4000E1D017F8013B0AF804300122084B1A703F
:103F5000E4B289F800405F45C8D1BC22054BDA7055
:103F6000BDE8F88F34800440D412FF1FD112FF1F28
:103F70004812FF1F00A00640D812FF1F4C12FF1F5F
:103F800010B5064B1B7813F0FF0F06D0034CFFF75C
:103F900035FC237813F0FF0FF9D110BD4812FF1F35
:103FA000064B1B78DBB2064A1278D2B293422CBF82
:103FB0003F3202F1FF32D01A704700BFD812FF1F04
:103FC000D112FF1F054B1878C0B2054B1B78DBB22E
:103FD000984238BF4030C01A704700BFD012FF1F50
:103FE0004912FF1F10B4184B1A78D2B2174B1B7826
:103FF000DBB29A4218D001333F2B18D81449C85C61
:10400000C0B2DCB211490C7012490968C9B19A42B8
:1040100003D300E00023D31A01E04032D31A1A2B55
:104020000FDC00230B700CE04FF0FF3009E0084B71
:104030001878C0B20021054B1970064B1968002989
:10404000E8D15DF8044B7047D012FF1F4912FF1FE3
:104050009012FF1F4412FF1F094B1A78D2B2094B6E
:104060001B78DBB29A4207D00133402B28BF0023D4
:10407000054AD05CC0B270474FF0FF30704700BFB8
:10408000D012FF1F4912FF1F9012FF1F0D4B1B681C
:1040900013F4806F14D00C4BDA7802F0CB02DA7094
:1040A00040225A74DA7842F03402DA70074B1A78F8
:1040B000D2B2074B1A70074B1B680BB100221A7063
:1040C000704700BF3480044000A006404912FF1F23
:1040D000D012FF1F4412FF1F70B43D4B1B7913F029
:1040E000300F33D072B63A4B9B7D03F0FF022BB9F1
:1040F000374BDA7940225A7462B627E062B6354B04
:104100001978C9B2344B1C78E4B2314D334EEB7997
:10411000D8B24B1C402B28BF0023A3421CBFF05435
:104120001946531E13F0FF02F1D1CAB2294B1A707F
:104130002B4B1B6853B1A1422EBFC4EB0101C4F14C
:10414000400409192729C4BF01221A70204BDA78CC
:10415000D2B212F0800F27D01B7913F0800F23D03A
:10416000204B1C78E4B2204B1B78DBB29C4210D071
:1041700017491E4D01E0A3420BD00133402B28BF4D
:1041800000230879E85CC0B2C871087DC0B2072876
:10419000F1D9DBB214490B700D4B1B7913F0800F72
:1041A00002D07C210A4BD97012F0400F0ED0084B80
:1041B0001B7913F0400F09D000220D4B1A700D4BE4
:1041C0001B6803B11A703C22014BDA7070BC704757
:1041D00000A00640D012FF1F4912FF1F9012FF1FC0
:1041E0004412FF1FD812FF1FD112FF1F4C12FF1FD6
:1041F0004812FF1FD412FF1F2A4B1A6842F40062B4
:104200001A600023284A1370284A1370284A137032
:10421000284A1370284A1370284B1B781A2B08D091
:104220003B2B0BD0092B0DD140F21332244B1A60DB
:1042300008E040F21332234B1A6003E040F21332DD
:10424000214B1A60214B1B781F2B08D03A2B0BD027
:104250000A2B0DD14FF451721D4B1A6008E04FF438
:1042600051721C4B1A6003E04FF451721A4B1A60E2
:10427000C0F34432194B1A70C0F347125A7000F061
:104280001F009872042199700222DA7459758821EE
:1042900019743C21D9704021114B1970A3F21D33C0
:1042A0001A607047348004404C13FF1FE112FF1F57
:1042B0005413FF1F4D13FF1FE012FF1F6D07FF1F59
:1042C0000CB004403890044004D004406E07FF1F37
:1042D00010B0044028A0044000D0044000B00640C4
:1042E00021E400E01B4B9B7803F0EC0300F0030299
:1042F000134310F0040F18BF43F01003154A9370D6
:1043000000F00F03042B04D11346927942F04002CF
:104310009A71104B5A7902F0EF0210F0100F18BF8B
:1043200042F010020B4B5A719B7903F0EF0310F02F
:10433000200F18BF43F01003064A937110F4807FDA
:1043400007D013465278D2B2197841F02001197083
:104350005A70704700B0064010B5214B1B6813F42B
:10436000006F3BD01F4B1B7813F0FF0F06D01D4C86
:10437000FFF744FA237813F0FF0FF9D102221A4B0A
:104380001A600022194BDA70194B1B78092B02D0E6
:104390003B2B05D007E040F20312164B1A6002E0F7
:1043A0000022154B1A60154B1B7803F07F030A2B74
:1043B00002D03A2B05D007E040F20312104B1A60EE
:1043C00002E000220F4B1A6000230F4A13700F4ABD
:1043D00013700F4B1B680BB101221A7010BD00BF88
:1043E00034800440E012FF1F84E100E000B006408A
:1043F0006D07FF1F0CB0044004D004406E07FF1F80
:1044000010B0044000D004404C13FF1FE112FF1F06
:10441000DC12FF1F10B50446094A137813F0FF0F92
:10442000FBD120460121FEF77DF920460021FEF751
:1044300055F9044B53F83420034B1A6010BD00BFEC
:10444000E012FF1FFC7300005013FF1F10B40C4656
:1044500009B140F08000184B1B78984228D0174AC9
:10446000126812F4006F21D003F07F030A2B02D0F0
:104470003A2B04D006E00022114B1A6002E0002221
:10448000104B1A60002C0CBF4422602200F07F0306
:104490000A2B02D03A2B05D008E042F44072084BB8
:1044A0001A6003E042F44072064B1A60024B187027
:1044B0005DF8044B704700BF6E07FF1F3480044057
:1044C00010B0044000D00440124B1B78984220D01A
:1044D000114A126812F4006F19D0092B02D03B2B3D
:1044E00004D006E000220D4B1A6002E000220C4BC3
:1044F0001A60092802D03B2805D008E040F21332A8
:10450000064B1A6003E040F21332054B1A60014B70
:10451000187070476D07FF1F348004400CB00440D2
:1045200004D0044010B50D4B1B6813F4006F12D07B
:104530003F280CD80A4C0B4B53F830302360012134
:10454000FEF7F0F8236800221A70012010BD002049
:10455000034B186010BD002010BD00BF3480044024
:10456000DC12FF1FFC730000114B1B6813F4006F7B
:104570001BD0172804D140F202320E4B1A600DE016
:104580003C2804D140F202320B4B1A6006E00B4B80
:104590005A7B02F0FE025A7300207047074B5A7B89
:1045A00042F001025A73012070470020704700BF9B
:1045B0003480044008B0044008D0044000B00640F5
:1045C0002DE9F04107461F4B1B6813F4006F37D0ED
:1045D0001D4B1B680BB101221A701C4B1C78013457
:1045E000282C28BF00241A4D1A4EDFF86C8017E0E3
:1045F000FFF7F8F940280FDC337913F0800F0FD064
:104600002B780133282B28BF002318F80320D2B2BF
:10461000F271DBB22B7003E0FF2801DDFFF7EEF84B
:104620002B78DBB29C42E3D0FFB20B4B1F5501222B
:104630000A4B1A70E4B2054B1C70BC22054BDA70B1
:10464000BDE8F081348004405013FF1F5413FF1F56
:104650004D13FF1F00B00640E412FF1FE012FF1FC2
:104660002DE9F84F0746284B1B6813F4006F49D01B
:10467000264B1B680BB101221A7007EB010B5F453B
:104680003DD2DFF89890224EDFF88C80DFF890A0C2
:1046900099F800400134282C28BF00243578EDB269
:1046A000A54220D1BC2388F80330FFF79BF94028AE
:1046B00011DC98F8043013F0800F10D033780133F8
:1046C000282B28BF00231AF80320D2B288F807202D
:1046D000DBB2337003E0FF2801DDFFF78FF833789A
:1046E000DBB29D42E1D017F8013B0AF80430012209
:1046F000084B1A70E4B289F800405F45C8D1BC226B
:10470000054BDA70BDE8F88F348004405013FF1F6A
:104710004D13FF1FE012FF1F00B006405413FF1F90
:10472000E412FF1F10B5064B1B7813F0FF0F06D0E5
:10473000034CFFF763F8237813F0FF0FF9D110BD96
:10474000E012FF1F064B1B78DBB2064A1278D2B28A
:1047500093422CBF273202F1FF32D01A704700BFBC
:104760005413FF1F4D13FF1F054B1878C0B2054BA4
:104770001B78DBB2984238BF4030C01A704700BF88
:104780004C13FF1FE112FF1F10B4184B1A78D2B25E
:10479000174B1B78DBB29A4218D001333F2B18D845
:1047A0001449C85CC0B2DCB211490C7012490968E6
:1047B000C9B19A4203D300E00023D31A01E040328A
:1047C000D31A1A2B0FDC00230B700CE04FF0FF30D4
:1047D00009E0084B1878C0B20021054B1970064B50
:1047E00019680029E8D15DF8044B70474C13FF1F8E
:1047F000E112FF1F0C13FF1FDC12FF1F094B1A7879
:10480000D2B2094B1B78DBB29A4207D00133402B5E
:1048100028BF0023054AD05CC0B270474FF0FF307C
:10482000704700BF4C13FF1FE112FF1F0C13FF1F47
:104830000D4B1B6813F4006F14D00C4BDA7802F0A8
:10484000CB02DA7040225A74DA7842F03402DA701D
:10485000074B1A78D2B2074B1A70074B1B680BB183
:1048600000221A70704700BF3480044000B0064038
:10487000E112FF1F4C13FF1FDC12FF1F70B43D4BF2
:104880001B7913F0300F33D072B63A4B9B7D03F097
:10489000FF022BB9374BDA7940225A7462B627E00F
:1048A00062B6354B1978C9B2344B1C78E4B2314D3D
:1048B000334EEB79D8B24B1C402B28BF0023A342C8
:1048C0001CBFF0541946531E13F0FF02F1D1CAB2B7
:1048D000294B1A702B4B1B6853B1A1422EBFC4EB5E
:1048E0000101C4F1400409192729C4BF01221A702B
:1048F000204BDA78D2B212F0800F27D01B7913F058
:10490000800F23D0204B1C78E4B2204B1B78DBB205
:104910009C4210D017491E4D01E0A3420BD0013339
:10492000282B28BF00230879E85CC0B2C871087D35
:10493000C0B20728F1D9DBB214490B700D4B1B79BB
:1049400013F0800F02D07C210A4BD97012F0400F77
:104950000ED0084B1B7913F0400F09D000220D4BED
:104960001A700D4B1B6803B11A703C22014BDA70B0
:1049700070BC704700B006404C13FF1FE112FF1FD0
:104980000C13FF1FDC12FF1F5413FF1F4D13FF1FDB
:10499000E412FF1FE012FF1F5013FF1F164B1A688F
:1049A00042F480521A600023144A1370144A1370A0
:1049B000144A1370144A1370144A137040F21331DE
:1049C000134A11604FF4517104321160C0F3443145
:1049D000104A1170C0F34711517000F01F0090721F
:1049E000937013742C23D37040220B4B1A7008223F
:1049F000A3F21F331A60704734800440C813FF1FAE
:104A00005D13FF1FD013FF1FC913FF1F5C13FF1F90
:104A100008C0044000C0064023E400E01B4B9B7824
:104A200003F0EC0300F00302134310F0040F18BF6F
:104A300043F01003154A937000F00F03042B04D1C8
:104A40001346927942F040029A71104B5A7902F063
:104A5000EF0210F0100F18BF42F010020B4B5A710A
:104A60009B7903F0EF0310F0200F18BF43F0100301
:104A7000064A937110F4807F07D013465278D2B261
:104A8000197841F0200119705A70704700C0064033
:104A900010B5134B1B6813F4805F20D0114B1B78AB
:104AA00013F0FF0F06D00F4CFEF7A8FE237813F08B
:104AB000FF0FF9D108220C4B1A6000230B4AD37068
:104AC00040F203120A490A6004310A60094A13706D
:104AD000094A1370094B1B680BB101221A7010BDF3
:104AE000348004405C13FF1F84E100E000C00640F6
:104AF00008C00440C813FF1F5D13FF1F5813FF1F9A
:104B000010B50446094A137813F0FF0FFBD1204675
:104B10000121FDF707FE20460021FDF7DFFD044BD4
:104B200053F83420034B1A6010BD00BF5C13FF1F05
:104B3000FC730000CC13FF1F10B40C4609B140F009
:104B40008000104B1B78984219D00F4A126812F45B
:104B5000805F12D003F07F03082B02D100220B4BA1
:104B60001A60002C0CBF4422602200F07F03082B47
:104B700003D142F44072054B1A60024B18705DF885
:104B8000044B70476F07FF1F348004400CC0044083
:104B9000704700BF10B50D4B1B6813F4805F12D037
:104BA0003F280CD80A4C0B4B53F8303023600121BE
:104BB000FDF7B8FD236800221A70012010BD002007
:104BC000034B186010BD002010BD00BF34800440AE
:104BD0005813FF1FFC7300000D4B1B6813F4805F1C
:104BE00013D00E280AD140F202320A4B1A600A4B47
:104BF0005A7B42F001025A7301207047064B5A7BE0
:104C000002F0FE025A73002070470020704700BF78
:104C10003480044004C0044000C006402DE9F04147
:104C200007461F4B1B6813F4805F37D01D4B1B6872
:104C30000BB101221A701C4B1C780134282C28BFA0
:104C400000241A4D1A4EDFF86C8017E0FEF7CAFEFA
:104C500040280FDC337913F0800F0FD02B7801330D
:104C6000282B28BF002318F80320D2B2F271DBB240
:104C70002B7003E0FF2801DDFEF7C0FD2B78DBB2CF
:104C80009C42E3D0FFB20B4B1F5501220A4B1A7016
:104C9000E4B2054B1C70AC22054BDA70BDE8F08124
:104CA00034800440CC13FF1FD013FF1FC913FF1F14
:104CB00000C006406013FF1F5C13FF1F38B5054698
:104CC0000C4629B115F8010BFFF7A8FF013CF9D1FB
:104CD00038BD00BF10B5064B1B7813F0FF0F06D090
:104CE000034CFEF78BFD237813F0FF0FF9D110BDB5
:104CF0005C13FF1F064B1B78DBB2064A1278D2B258
:104D000093422CBF273202F1FF32D01A704700BF06
:104D1000D013FF1FC913FF1F054B1878C0B2054BF6
:104D20001B78DBB2984238BF4030C01A704700BFD2
:104D3000C813FF1F5D13FF1F10B4184B1A78D2B2AF
:104D4000174B1B78DBB29A4218D001333F2B18D88F
:104D50001449C85CC0B2DCB211490C701249096830
:104D6000C9B19A4203D300E00023D31A01E04032D4
:104D7000D31A1A2B0FDC00230B700CE04FF0FF301E
:104D800009E0084B1878C0B20021054B1970064B9A
:104D900019680029E8D15DF8044B7047C813FF1F5C
:104DA0005D13FF1F8813FF1F5813FF1F094B1A784D
:104DB000D2B2094B1B78DBB29A4207D00133402BA9
:104DC00028BF0023054AD05CC0B270474FF0FF30C7
:104DD000704700BFC813FF1F5D13FF1F8813FF1F1D
:104DE000054B1A78D2B2054B1A70054B1B680BB1F4
:104DF00000221A70704700BF5D13FF1FC813FF1F0A
:104E00005813FF1F2F4B1B7913F0200F23D02D4B6E
:104E1000DB79D9B22C4B1B780133402B28BF002300
:104E20002A4A1278D2B29A4204D0294AD154D9B22D
:104E3000254A1170274A116869B1274A1278D2B2FF
:104E400093422EBFC2EB0303C2F140029B18272BF3
:104E5000C4BF01230B701B4BDB78DBB213F0800F58
:104E60001CD0184A127912F0800F17D01B4A117803
:104E7000C9B2194A1278D2B2914203D16C21114AB7
:104E8000D1700BE00132282A28BF00221449885C27
:104E9000C0B20C49C871D2B20F490A7013F0400F6A
:104EA0000ED0084B1B7913F0400F09D000220D4B98
:104EB0001A700D4B1B6803B11A702C22014BDA706B
:104EC000704700BF00C00640C813FF1F5D13FF1FDF
:104ED0008813FF1F5813FF1FC913FF1FD013FF1F95
:104EE0006013FF1F5C13FF1FCC13FF1F234B1A68B7
:104EF00042F400521A600023214A1370214A1370B1
:104F0000214A1370214A1370214A1370214B1B78D8
:104F10001F2B02D03F2B05D008E040F213321E4B6E
:104F20001A6003E040F213321C4B1A601C4B1B78D2
:104F3000202B02D03E2B05D008E04FF45172194BC4
:104F40001A6003E04FF45172174B1A60C0F34432F9
:104F5000164B1A70C0F347125A7000F01F00987277
:104F600000229A701A742C22DA704022104B1A70A8
:104F70002022A3F221331A60704700BF348004401E
:104F80004414FF1FD913FF1F4C14FF1F4514FF1FAC
:104F9000D813FF1F7007FF1F28A0044014D004403F
:104FA0007107FF1F2CA0044010D0044000D0064021
:104FB00025E400E01B4B9B7803F0EC0300F00302B8
:104FC000134310F0040F18BF43F01003154A9370F9
:104FD00000F00F03042B04D11346927942F04002F3
:104FE0009A71104B5A7902F0EF0210F0100F18BFAF
:104FF00042F010020B4B5A719B7903F0EF0310F053
:10500000200F18BF43F01003064A937110F4807FFD
:1050100007D013465278D2B2197841F020011970A6
:105020005A70704700D0064010B5244B1B6813F42B
:10503000005F41D0224B1B7813F0FF0F06D0204CAD
:10504000FEF7DCFB237813F0FF0FF9D120221D4B74
:105050001A6000221C4BDA7040F203131B4A1360E3
:10506000043213601A4B1B781F2B02D03F2B05D044
:1050700007E040F20312154B1A6002E00022154BC4
:105080001A60154B1B7803F07F03202B02D03E2BB8
:1050900005D007E040F20312104B1A6002E0002234
:1050A0000F4B1A6000230F4A13700F4A13700F4BF7
:1050B0001B680BB101221A7010BD00BF3480044080
:1050C000D813FF1F84E100E000D0064028A0044070
:1050D0007007FF1F14D004407107FF1F2CA004406D
:1050E00010D004404414FF1FD913FF1FD413FF1F17
:1050F00010B50446094A137813F0FF0FFBD1204680
:105100000121FDF70FFB20460021FDF7E7FA044BD4
:1051100053F83420034B1A6010BD00BFD813FF1F93
:10512000FC7300004814FF1F10B40C4609B140F096
:105130008000184B1B78984228D0174A126812F446
:10514000005F21D003F07F03202B02D03E2B04D040
:1051500006E00022114B1A6002E00022104B1A6098
:10516000002C0CBF4422602200F07F03202B02D0D1
:105170003E2B05D008E042F44072084B1A6003E071
:1051800042F44072064B1A60024B18705DF8044BF3
:10519000704700BF7107FF1F348004402CA00440FB
:1051A00010D00440124B1B78984220D0114A12684C
:1051B00012F4005F19D01F2B02D03F2B04D006E061
:1051C00000220D4B1A6002E000220C4B1A601F28CF
:1051D00002D03F2805D008E040F21332064B1A6097
:1051E00003E040F21332054B1A60014B1870704710
:1051F0007007FF1F3480044028A0044014D00440EE
:1052000010B50D4B1B6813F4005F12D03F280CD86B
:105210000A4C0B4B53F8303023600121FDF782FA22
:10522000236800221A70012010BD0020034B186073
:1052300010BD002010BD00BF34800440D413FF1FF8
:10524000FC730000002070472DE9F04107461F4B1A
:105250001B6813F4005F37D01D4B1B680BB1012294
:105260001A701C4B1C780134282C28BF00241A4DBE
:105270001A4EDFF86C8017E0FEF7B4FB40280FDC15
:10528000337913F0800F0FD02B780133282B28BFF0
:10529000002318F80320D2B2F271DBB22B7003E0C6
:1052A000FF2801DDFEF7AAFA2B78DBB29C42E3D09F
:1052B000FFB20B4B1F5501220A4B1A70E4B2054B8B
:1052C0001C70AC22054BDA70BDE8F08134800440DC
:1052D0004814FF1F4C14FF1F4514FF1F00D0064049
:1052E000DC13FF1FD813FF1F38B505460C4629B144
:1052F00015F8010BFFF7A8FF013CF9D138BD00BF3D
:1053000010B5064B1B7813F0FF0F06D0034CFEF7C9
:1053100075FA237813F0FF0FF9D110BDD813FF1FD2
:10532000064B1B78DBB2064A1278D2B293422CBFEE
:10533000273202F1FF32D01A704700BF4C14FF1F12
:105340004514FF1F054B1878C0B2054B1B78DBB224
:10535000984238BF4030C01A704700BF4414FF1F46
:10536000D913FF1F10B4184B1A78D2B2174B1B7801
:10537000DBB29A4218D001333F2B18D81449C85CCD
:10538000C0B2DCB211490C7012490968C9B19A4225
:1053900003D300E00023D31A01E04032D31A1A2BC2
:1053A0000FDC00230B700CE04FF0FF3009E0084BDE
:1053B0001878C0B20021054B1970064B19680029F6
:1053C000E8D15DF8044B70474414FF1FD913FF1F49
:1053D0000414FF1FD413FF1F094B1A78D2B2094BD4
:1053E0001B78DBB29A4207D00133402B28BF002341
:1053F000054AD05CC0B270474FF0FF30704700BF25
:105400004414FF1FD913FF1F0414FF1F054B1A7804
:10541000D2B2054B1A70054B1B680BB100221A70F3
:10542000704700BFD913FF1F4414FF1FD413FF1F81
:105430002F4B1B7913F0200F23D02D4BDB79D9B2E2
:105440002C4B1B780133402B28BF00232A4A1278AB
:10545000D2B29A4204D0294AD154D9B2254A117005
:10546000274A116869B1274A1278D2B293422EBFF7
:10547000C2EB0303C2F140029B18272BC4BF0123D8
:105480000B701B4BDB78DBB213F0800F1CD0184A7B
:10549000127912F0800F17D01B4A1178C9B2194A3D
:1054A0001278D2B2914203D16C21114AD1700BE033
:1054B0000132282A28BF00221449885CC0B20C4956
:1054C000C871D2B20F490A7013F0400F0ED0084BCA
:1054D0001B7913F0400F09D000220D4B1A700D4BB1
:1054E0001B6803B11A702C22014BDA70704700BFA1
:1054F00000D006404414FF1FD913FF1F0414FF1FE0
:10550000D413FF1F4514FF1F4C14FF1FDC13FF1F94
:10551000D813FF1F4814FF1F164B1A6842F480620D
:105520001A600023144A1370144A1370144A13703B
:10553000144A1370144A137040F21331134A116065
:105540004FF45171043A1160C0F34431104A1170A4
:10555000C0F34711517000F01F00907293701374E4
:105560002C23D37040220B4B1A700422A3F23A333F
:105570001A60704728800440C014FF1F5514FF1F95
:10558000C814FF1FC114FF1F5414FF1F64D0044030
:1055900000A00E4042E400E01B4B9B7803F0EC03BC
:1055A00000F00302134310F0040F18BF43F0100380
:1055B000154A937000F00F03042B04D1134692791F
:1055C00042F040029A71104B5A7902F0EF0210F04B
:1055D000100F18BF42F010020B4B5A719B7903F069
:1055E000EF0310F0200F18BF43F01003064A937129
:1055F00010F4807F07D013465278D2B2197841F068
:10560000200119705A70704700A00E4010B5134B5E
:105610001B6813F4806F20D0114B1B7813F0FF0F21
:1056200006D00F4CFEF7EAF8237813F0FF0FF9D1FC
:1056300004220C4B1A6000230B4AD37040F2031271
:105640000A490A6004390A60094A1370094A13704A
:10565000094B1B680BB101221A7010BD2880044051
:105660005414FF1F88E100E000A00E4064D0044005
:10567000C014FF1F5514FF1F5014FF1F10B5044620
:10568000094A137813F0FF0FFBD120460121FDF7E3
:1056900049F820460021FDF721F8044B53F8342047
:1056A000034B1A6010BD00BF5414FF1FFC730000B1
:1056B000C414FF1F10B40C4609B140F08000104B19
:1056C0001B78984219D00F4A126812F4805F12D0EA
:1056D00003F07F03212B02D100220B4B1A60002C18
:1056E0000CBF4422602200F07F03212B03D142F43F
:1056F0004072054B1A60024B18705DF8044B7047FE
:105700007207FF1F3480044060D00440704700BF20
:1057100010B50D4B1B6813F4806F12D03F280CD8C6
:105720000A4C0B4B53F8303023600121FCF7FAFF91
:10573000236800221A70012010BD0020034B18605E
:1057400010BD002010BD00BF288004405014FF1F72
:10575000FC7300000D4B1B6813F4806F13D01828E6
:105760000AD140F202320A4B1A600A4B5A7B42F0CD
:1057700001025A7301207047064B5A7B02F0FE0269
:105780005A73002070470020704700BF28800440F3
:1057900068D0044000A00E402DE9F04107461F4BA1
:1057A0001B6813F4806F37D01D4B1B680BB10122AF
:1057B0001A701C4B1C780134282C28BF00241A4D69
:1057C0001A4EDFF86C8017E0FEF70CF940280FDC6A
:1057D000337913F0800F0FD02B780133282B28BF9B
:1057E000002318F80320D2B2F271DBB22B7003E071
:1057F000FF2801DDFEF702F82B78DBB29C42E3D0F4
:10580000FFB20B4B1F5501220A4B1A70E4B2054B35
:105810001C70AC22054BDA70BDE8F0812880044092
:10582000C414FF1FC814FF1FC114FF1F00A00E40A7
:105830005814FF1F5414FF1F38B505460C4629B1F4
:1058400015F8010BFFF7A8FF013CF9D138BD00BFE7
:1058500010B5064B1B7813F0FF0F06D0034CFDF775
:10586000CDFF237813F0FF0FF9D110BD5414FF1FA3
:10587000064B1B78DBB2064A1278D2B293422CBF99
:10588000273202F1FF32D01A704700BFC814FF1F41
:10589000C114FF1F054B1878C0B2054B1B78DBB253
:1058A000984238BF4030C01A704700BFC014FF1F75
:1058B0005514FF1F10B4184B1A78D2B2174B1B782F
:1058C000DBB29A4218D001333F2B18D81449C85C78
:1058D000C0B2DCB211490C7012490968C9B19A42D0
:1058E00003D300E00023D31A01E04032D31A1A2B6D
:1058F0000FDC00230B700CE04FF0FF3009E0084B89
:105900001878C0B20021054B1970064B19680029A0
:10591000E8D15DF8044B7047C014FF1F5514FF1FFA
:105920008014FF1F5014FF1F094B1A78D2B2094B85
:105930001B78DBB29A4207D00133402B28BF0023EB
:10594000054AD05CC0B270474FF0FF30704700BFCF
:10595000C014FF1F5514FF1F8014FF1F054B1A783A
:10596000D2B2054B1A70054B1B680BB100221A709E
:10597000704700BF5514FF1FC014FF1F5014FF1FB6
:105980002F4B1B7913F0200F23D02D4BDB79D9B28D
:105990002C4B1B780133402B28BF00232A4A127856
:1059A000D2B29A4204D0294AD154D9B2254A1170B0
:1059B000274A116869B1274A1278D2B293422EBFA2
:1059C000C2EB0303C2F140029B18272BC4BF012383
:1059D0000B701B4BDB78DBB213F0800F1CD0184A26
:1059E000127912F0800F17D01B4A1178C9B2194AE8
:1059F0001278D2B2914203D16C21114AD1700BE0DE
:105A00000132282A28BF00221449885CC0B20C4900
:105A1000C871D2B20F490A7013F0400F0ED0084B74
:105A20001B7913F0400F09D000220D4B1A700D4B5B
:105A30001B6803B11A702C22014BDA70704700BF4B
:105A400000A00E40C014FF1F5514FF1F8014FF1F3D
:105A50005014FF1FC114FF1FC814FF1F5814FF1F4D
:105A60005414FF1FC414FF1F2DE9F003504B1A6894
:105A700042F010021A60283B1B6803F44033B3F570
:105A8000403F06D04B4A4C4DB3F5803F08BF15460A
:105A900000E04A4D8300B5FBF3F31FFA83F8B8F139
:105AA000000F00F082804FEA8807B5FBF7F73F1A36
:105AB00067D008F101039B00B5FBF3F3C31A9F42C3
:105AC0005FD908F101081FFA88F81F4659E0B5FBB5
:105AD000F4F291B25E1C0444E1B19C4633465E1E72
